S123000048F9FF1F71370000393400003B3400003D3400003F3400004134000000000000A0
S1230020000000000000000000000000433400004534000000000000852700007524000087
S123004047340000493400004B3400004D3400004F3400005134000053340000553400008C
S123006057340000593400005B3400005D3400005F340000613400006334000065340000EC
S123008067340000693400006B3400006D3400006F3400007134000073340000753400004C
S12300A077340000793400007B3400007D3400007F340000813400008334000085340000AC
S12300C08734000089340000B5230000B723000000000000000000008B3400008D34000072
S12300E08F3400009134000093340000953400009734000099340000FFFFFFFFFFFFFFFF54
S1230100000000000000000000000000000000004A2D4C696E6B204F422D4D423941463376
S123012031324B2D5370616E73696F6E20636F6D70696C6564204A756E20313520323031A2
S1230140352042544C202020202000436F7079726967687420323030332D323031352053BE
S123016045474745523A207777772E7365676765722E636F6D00000000000000000000003A
S12301800021002803E0C20748BF491C4008FAD10846704710B52421DFF8D42801FB0020E9
S12301A00179012911D0032915D1448801F065F830B9FF2CC8BFFF240EDC6CB908240BE0A6
S12301C0112C05DA44B9042406E04488112C01DB102401E004B90124E0B210BD0023036033
S12301E0816042607047026843689A4204D28368D1540168491C0160704738B500F006F829
S1230200290AFFE72046BDE83440ECE704460D46C9B2E8E72DE9FE4F00F0DBFA092100F046
S12302203CF9072100F039F9002100F0D0FADFF84458697800F031F900F02EF9002100F0CA
S12302402CF9C02100F029F9322100F026F94FF0000ADFF81C9801E00AF1010A68788245BE
S123026062DA1C2000FB0A5000F10C0420884008FFF786FF0646092100F00FF9042100F0BE
S12302800CF95FFA8AF100F008F9002100F005F9F1B200F002F9A17800F0FFF8E17800F0AA
S12302A0FCF8217900F0F9F8002100F0F6F8A268100002D000A95046904701260FE0002292
S12302C039793BF8090000F0B0FF81B200F07FFA3046FFF75FFF014600F0DFF8761C2878E7
S12302E08642B9DA20880121B1400842F6D0072100F0D3F8052100F0D0F8242000FB06FBD3
S12303000BEB0907797900F0C8F8397900F0C5F800F0B3FF0028D2D1F0B2E96E49698847EB
S12303200122397980B2CEE749E2FEB5DFF8484760B900F08FFA042100F0AFF8032100F057
S1230340ACF840F2094100F042FA43E001280AD00CD3032801D003D308E001F035F80CE084
S123036001F02FF809E001F029F806E0DFF80417D1F89020130002D0904705460EE00428F4
S123038008BF0FF2FC6509D0052808D3401F4A78904204D21C2202FB0010456A0DB90020A6
S12303A0FEBD2846002600E0761C10F8011B0029FAD100F04FFA7000811C00F073F803219B
S12303C000F06BF8002703E0795D00F000FA7F1CB742F9D32046FEBD01220021012000F026
S12303E066BDFEB500240025C179827942EA0126DFF88076C178012908D0022909D003291A
S12304000AD006290DD007292FD035E000F0E7F905E000F033F92DE08078FFF786FF054612
S12304202AE000F024FF002827D0DFF84C568022294600A8FFF7D2FE0A2100F02EF806211C
S123044000F02BF800F0C1F9B97800F026F8F97800F023F8397900F020F800F020F800F06E
S12304601BF8002100F019F805E000F000FF20B1FFF7D0FE0546AC781DB9F86E406A8047BE
S1230480F7BD04B92C78B44288BF344601222146284600F00CFDF7BD012100A8A3E6DFF8BD
S12304A0D0050188C9B200A89DE638B5DFF8C415CD6E8278C37852EA032201BF8279C379CF
S12304C042EA0322022A49D1CA79520704D400780322104242D10BE000ACCA79920702781E
S12304E01ED412F0030203D0022A13D00FD331BD00F042F805D59DF8000040F002008DF8FD
S123050000000022022100A800F0D1FC31BD007920BB01E0007908BB0020ADF80000F0E732
S123052012F0030203D0022A13D008D321E000F023F81ED59DF8000040F0020017E0497875
S1230540491E0079814202DA686A804711E000200DE0007900F0CCFBFF2802D1686A8047BE
S123056031BD2421DFF8082501FB0020C0798DF8000000206070C4E7887A8DF80000087AC2
S123058080077047F8B504460D46DFF8E814CE6EA078E27840EA0222A079E37940EA03233B
S12305A0EFB22079022A1DD194F800C0BCF1000F1AD194F805C0BCF1000F18BF002D13D0FC
S12305C0BCF1050F56D200F058FE002852D0FFF703FF61790420326C90470920BDE8F24033
S12305E001F06AB8032A45DA002B43D1012A08D1002D087A14BF40F0020000F0FD0008723A
S123060035E0CB795B0735D5C9798907217813D411F0030102D0022903D02BE0022A29D1B9
S123062025E03ABB00F064FB20BB280018BF0120DFF83C14C8711AE011F0030102D0022916
S123064002D017E0B2B912E0002818BF802811D000F04EFB0446FF2C0CD0394600F06DFD85
S12306602FB9204600F0FDF9204600F01DFEBDE8F140B1E6706ABDE8F24000472DE9FE4F09
S12306804FF08009DFF8EC43207AC00748BF4FF0A009A07A08B149F0400900F09AF8092137
S12306A0FFF7FBFE0221FFF7F8FE002100F08FF86178FFF7F2FEFFF7EFFE0421FFF7EDFEF8
S12306C04946FFF7EAFEDFF8B4030178FFF7E5FE0027DFF89C9300E07F1C607887426EDA38
S12306E0226F1AB100A93846526890471C2000FB074000F10C0528884008FFF741FD0646EA
S12307000921FFF7CAFE0421FFF7C7FEF9B2FFF7C4FE0021FFF7C1FEF1B2FFF7BEFEA9785E
S1230720FFF7BBFEE978FFF7B8FE2979FFF7B5FE791DFFF7B7FEAA68100002D000A9384652
S12307409047012616E0F0B2E16E4969884701229AF8041080B200F068FD2BF809003BF880
S1230760091000F034F83046FFF714FD0146FFF794FE761C20788642AEDA28880121B140B7
S12307800842F6D00721FFF788FE0521FFF785FE242000FB06FB0BEB090A9AF80510FFF71C
S12307A07CFE9AF80410FFF778FE00F066FD0028C9D100229AF804103BF80900CBE7009846
S12307C088F802004046BDE8FE8F4FF4007100A813E5DFF8A4828022414600A8FEE470B5B2
S12307E084B0A54C00F036F81221FFF756FEFFF753FEFFF7EAFF9F4DA978FFF74EFEAE1CF6
S12308007178FFF74AFEB178FFF747FEFFF747FE00F0CEFD0146FFF7DAFF00F0CCFD01463D
S1230820FFF7D5FFD5F89400010001D0804701E04FF480700146FFF7CAFFFFF72DFE022192
S1230840FFF72BFE0321FFF728FEFFF725FE204604B070BD8022214600A8BFE438B5854CC3
S1230860607A000613D5607A00F07F006072657A2846E16EC9698847002DE07914BF40F06B
S1230880040000F0FB00BDE8324000F09FBC31BD2DE9F04182B00546764C67784FF0000869
S12308A01C260BE006FB08400C304169080003D02846884700281ED008F10108B845F1D3E7
S12308C0E16E0F46287810F0600006D0202800F0A980402800F0B480BFE068780B28FBD828
S12308E0DFE800F0060ABB0CBB112CBB30336A802846FFF7DAFDB2E0002100E00121284608
S1230900FFF740FEABE0AD78A07988B12846C9698847002DE07914BF40F0040000F0FB00B6
S123092000F054FCA079012801D1FFF755FD96E0FFF752FD45F08000607290E02846FFF701
S123094050FD8CE000F0F4F944E0A8788DF80000E06E05469DF8001001291BD1FFF73CFDB1
S1230960E07940F0020000F031FC01260AE00021304600F0E2FB304600F073F8304600F01F
S123098093FC761C2078F6B28642F0D3286C002865D00AE071B9FFF71FFDE07900F0FD000A
S12309A000F014FC286C002859D000A900202A6C904754E0406A51E0A878002804BFA879DD
S12309C001282DD1E07900F00600062818BF486A44D100208DF800000022012100A800F050
S12309E066FA3CE0A878E27902F00602062A17D162782B799A4213D3022811D2FFF7ECFCBF
S1230A000125207885422ADA0021E8B200F095FBE8B200F026F8E8B200F046FC6D1CF0E73A
S1230A20486A1BE028796178884216D206FB00400C30C168080010D02846884768B90EE0FF
S1230A4028796178884208D206FB00400C300169080002D02846884708B1786A8047BDE86F
S1230A60F3810449C96EC96B0A0018BF0847704750E6FF1F28E7FF1FF4E7FF1F8CE0FF1F5B
S1230A80436F6E66696775726174696F6E00000070B504460D46DFF84808C16E2420DFF8C7
S1230AA0442800FB042694B17079000605D5002030742046896B884702E02046896A88479C
S1230AC00020B060B07900B9F06005B130E370BD10B504462420DFF80C2800FB0420826853
S1230AE08A188260C268511AC160C16809B1807950B1204600F0D0FD2046DFF8E417C96E49
S1230B00896ABDE81040084710BD2DE9F84F8046894616469A4600244FF0FF352420DFF8ED
S1230B20C41700FB0817F879012808BF6FF002004FD000F0A7FDDFF8A8B79BF8070000F087
S1230B400300022842D176B13246494607F1140000F040F90546A944701B37D0B87928B11A
S1230B60002D33D102E0F86980BB0025C7F80890701BF8604046DBF86C10C96A8847BAF1E1
S1230B80000F21D040460A99C9B100F08FFDC0B1B87908B1F868351AF86800B100260021D0
S1230BA04046FFF775FFB87980B90124F86858B1002C0CBF4FF0FF356FF0010506E000F0A4
S1230BC070FDB8790028F1D0F868351A00F051FD2846BDE8F28F2DE9F04780460C469146CD
S1230BE01D4600272420DFF8FC1600FB081600F049FDDFF8ECA69AF8050008B9307C08B9BD
S1230C00B068E8B14046B9F1000F17D0494600F04DFDA8B1F068241A9AF8050008B9307C3D
S1230C2000B92CB13088F168814238BFF068241A00214046FFF72CFF012703E000F031FDC8
S1230C40F068241A05B12C6000F013FD3846BDE8F0872DE9FE4F80468946DFF88466F76E00
S1230C6000243078062840D28DF800002421DFF8742601FB0025FB6CDDF830A0180004D010
S1230C80524649464046984703E0494640467A6890475FEA000B18BFBBF1FF0F25D02421F4
S1230CA0284600F011FD4BEAC810687185F804909DF80000796988470746B8F1000F02D1AF
S1230CC0BA4598BF574600F0D2FAC2B24946384600F0ABFA288002986861C5F818A0BDF816
S1230CE0040068803478601C30702046BDE8FE8F10F07F0F01D1002070470121DFF8E4256B
S1230D0000E0491CDFF8D8351B78994207DA242303FB01235B798342F3D1C8B27047FF2041
S1230D2070472421DFF8BC2501FB002040797047DFF8AC05C079400800F001007047F8B511
S1230D40DFF89C45E56E0126DFF8987507E0242000FB0670A9688847E8688047761C2078BC
S1230D608642F4DBF1BD38B5DFF8744594F87400B8B99821204600F0A7FC01202070DFF802
S1230D806455D821284600F09FFC00F0B2FC0020E16E49698847288000F05EFC012084F887
S1230DA0740031BD38B5DFF83845E56E28688047FFF7C5FF2A6C100006D0611D0120904736
S1230DC0A11D02202A6C90471020E0712869BDE8324000472DE9F041044688461646002770
S1230DE01EE008B3E16840186268824288BF0246551AB54288BF35462A46206809184046B1
S1230E0000F0EAFC761BA068401BA060EF19A844E0682818E0606168884204BF0020E06092
S1230E20A068002EDDD108B90020E0603846BDE8F081F8B504460D46164617E0E268801896
S1230E40884228BF401A3218914288BF11460F1AB74288BF37463A4629462368C01800F0A0
S1230E60BBFCF61BA0683818A0607D1946B1A06861680A1AE2D10120BDE8F24000F01CBC59
S1230E80F1BD38B50024DFF85854ED7905F00305022D04D100930123FFF737FE0446204613
S1230EA032BD80B500230093FFF72FFE02BDDFF834349860D9609A740020DFF82414C96E8E
S1230EC0096B08472DE9F8435FEA00090D4616461F46DFF80C8403D098F80700800706D561
S1230EE02420DFF8001400FB0914E07908B1002030E02079022806D12088401E064201D1AB
S1230F00700500D10027002D08BF002E02D1012F08BF012500F0B6FBA06858B1E168081833
S1230F20A84204D1E0683018E060A7740AE0484600F0B7FBA560E660A7744846D8F86C10A9
S1230F40096B884700F095FBE068301A02D1A17C01B10120BDE8F2830023002211463AE69F
S1230F60F8B5054616460024DFF87473F87900F0030002280ED12846FFF7A4FF0446311B2D
S1230F80787908B1012905DB00AB002200F029F8009804192046F2BDF8B5054616464FF05E
S1230FA0FF34DFF83C73F87900F00300022815D12846FFF787FF0446311B069A787938B9FE
S1230FC000F00EF840B1009830B96FF0010405E0012903DB00F004F8009804192046F2BD9E
S1230FE000AB2846F7E52DE9F8430746884616462420DFF8F01200FB0714DFF8E49277B980
S123100099F86000874230DA09EB8700426E100002D03146404690477F1CFFB2F0E7226979
S1231020100002D0314640469047A06878B1E1688E4234BF3546E5684DB12A46414600F00C
S1231040CBFB761BA84429463846FFF741FD66B13246414604F11400FFF7EBFE3846D9F8DB
S12310606C10896ABDE8F4430847BDE8F18370B52422DFF8703202FB0034DFF8646228B12E
S123108072791AB9227C02BB01222274A368E3B119B92588E168A94200D2E5682A4619463A
S12310A0F36E5B6B9847E068401BE060A0682818A060E06848B92088854204D1A07C10B191
S12310C00020A07470BD0020A06070BD0021CEE770B504462420DFF80C1200FB0415DFF8F5
S12310E000622CB1707918B9287C08B100202874A86820B12046FFF7E9FF7079B8B170797A
S1231100002802BFE8680028A874A86818B92046F16E896B884734B1A868002804BFA87CE1
S1231120002804D104E0BDE87040FFF797BB70BD2046BDE8704000F0AFBA2422694B02FBF5
S12311400032D171664AD26E126A10476449C866704730B5002300241D4638C00C38416056
S1231160826061490A68134600E01B681BB18342FBD1012030BD02600860002030BD10B5AA
S1231180574CE07900206072FFF7D9FD01205549002304E0242202FB0012D371401C22783C
S12311A09042F7DBE07900F0100040F00800BDE810400BE04A48C07970474948C07940F09A
S12311C0010003E04648C07900F0FE0070B50546434CE079A84219D04348066806E072688E
S12311E0100002D02946B06890473668002EF6D1E571E079800709D5012503E0284600F09D
S123120053F86D1C2078EDB28542F7D370BD0021334AD27902F00302022A04D12421314A60
S123122001FB0020C16908467047032906D14021884201D24908FBD1084670472AB1B0F5BC
S1231240007F02D34FF400707047402801D340207047202801D320207047102801D310202A
S12312607047082801D3082070470020704780B500F009F800F0020002BD80B500F003F802
S123128000F0010002BD1648C06E8069004710B513484478611C4170C9B2042924BF072022
S12312A000F00AFA204610BD24210E4A01FB00210022CA718A60CA610A624A79120644BF8D
S12312C000220A7400F0E8B92422064B02FB0030016170472421034A01FB0020007C70471B
S12312E028E7FF1F50E6FF1FC0E7FF1F80B5C34801210170002000F00BFB012000F0FAFAB6
S1231300BDE8014000F0E6BAFEB5102400208DF80000002500F022FB00B10024012201217B
S12313200DF1010000F065FC9DF80100012802D0022806D00BE00422002101A800F06FFC92
S123134013E00422082101A800F053FC0DE0AC480190102C09D10122002100A800F049FCB6
S12313609DF80000042838BF012501980B26A54F02AA0A2100F040FA02993031F155761EF6
S1231380F6D540F2011025B19DF8000000F2011003E0102C18BF44F480507882F7BD00F031
S12313A0B3BC01F00300022818BF00F0ADBC70479448008A70479348408A704791484069BA
S12313C070479048806970478E4870471CB5FFF79BFFFFF7C8FC0020009000234FF40072AA
S12313E002210120FFF735FC8DF80400864C4FF40070009004F10C03024602210020FFF75B
S123140028FC8DF8050001A800F0EDFC7F4800F007FD00227E492046FFF79BFEFFF7C2FC4B
S123142013BD80B500F083FA142000F0F1FEBDE8014000F07BBA2DE9F04780468A466F4E78
S1231440307800283ED157467468DFF8C891ECB1C4F140003D46874288BF05462A46414699
S1231460A0190C3000F0B8F92C19A8447F1B402C0CD1D9F800300022402106F10C0000F047
S1231480A1FC402818BFFFF731FF0024B80985010CD0D9F8003000222946404600F092FC69
S12314A0A84218BFFFF722FFA8447F1B37B13A46414606F10C0000F08FF93C467460B068F2
S12314C05044B060BDE8F08710B54C4CA06818B900F0AFFC40B323E0207828BBFFF7CDFE45
S12314E0002814BF4FF400704020616871B149480368012204F10C0000F064FC61688842EC
S123150018BFFFF7F3FE0020606007E0A168401E014203D1480518BF00F050FC0020A06044
S1231520BDE8104000F081BC10BD38B504460D463248007870B9FFF7C7FF3648036801224B
S12315402946204600F03EFCA8421CBFBDE83140FFF7CCBE31BD70B505460E46274C207870
S1231560B0B9606808B1FFF7AFFF00223146284600F00EFCFFF781FE002814BF4FF40070B5
S12315804020401E064212BF0020A0683018A06070BD38B504460D461848007838B12A4618
S12315A00021204600F021F94FF0FF3032BD19480268204600F010FCA84202D0FFF796FEC6
S12315C0EDE7002032BD0D4A1278002A08BF00F0D9BB4FF0FF30704700F0E8BB00F0E3BB88
S12315E000F0DDBB80B5FFF7E5FD00F00300022801D1012002BD002002BD0000ECE3FF1FB7
S123160040E201000CE0FF1F38E4FF1F9F130000A313000008E0FF1F80B5FFF72EFE10B1D9
S12316204FF4007002BD402002BD10B450F8041B81B102681218001D50F8043BDC0744BF9A
S1231640A9F10104E31852F8044B43F8044B091FF9D1EBE710BC704738B50024184D05EB1C
S1231660C40000F0DBFD641C062CF8D331BD00F0CFBD14484178491E4170407808B980F3DA
S123168011887047802080F3118800BF00BF0D484178491C41707047094901EBC00000F003
S12316A0D5BD074901EBC00000F0F2BD491C044A02EBC00000F010BE0028FDD1704700002E
S12316C0C4E7FF1F28E0FF1F002200F02FBE50F8041B61B150F8042BD30744BFA9F10103AD
S12316E09A18002342F8043B091FFAD1EFE77047704782B01E48016841F0020101601D4866
S1231700016841F4007101601B48016841F0100101601A48002101600168C907FCD40021D8
S123172041600221016081600021C1603B21016104214162416841F0010141604169002987
S1231740FCD0016841F001010160002101E00099491C009100990729F9DB012101630848B8
S1231760018841F020010180064802B0FFF7EEBC18300340003603408035034000600340CA
S1231780202104404436000010B50446F0222146322000F011FEF02221463320BDE81040AC
S12317A000F00ABE0170090A00F8011F090A00F8011F090A00F8011F704710B5012A09DBF0
S12317C010F8013B11F8014BA34201D0012010BD521EF5D1002010BD012A05DB11F8013B55
S12317E000F8013B521EF9D17047012A03DB00F8011B521EFBD1704710B5002401E0194687
S1231800641C002902D44B009842F8D2002307E05B00884224BF401A43F001034908641EE0
S1231820002CF5D502B11060184610BD10B54048016841F080010160416841F0800141609B
S12318403C48016801F01F0101603B490A6802F01F020A60394A136803F01F031360384AAA
S1231860136803F01F0313600122930003F1804303F54C33D3F800420024C3F800421C68CB
S123188000241C60D3F800410024C3F80041D3F8004704F01F04C3F80047521C102AE4DBE6
S12318A0284A00231360284A13689B089B001360426942F003024261486980088000486197
S12318C0012000F017F80120BDE8104020E001207047704772B600F07BFE1C48018841F090
S12318E0200101801A4800F09BFE1A481A490160FEE77047144910B1012804D07047086853
S123190040F0020002E0086840F00100086070470D4910B1012804D07047086820F00200A2
S123192002E008684008400008607047704770471800014000320340003003400031034087
S12319400037034000350340143403402021044040420F000CED00E00400FA05002070473D
S123196000207047DFF800F093E3FF1FDFF800F097E3FF1F016881F308884068002282F326
S123198014880047704738B50446B04D0022294600F074FE295B884201D1002032BD012032
S12319A032BD80B51D220FF2C02100F58870FFF704FF401E8041C00F02BD00210278202A66
S12319C006D1401C04E00A2303FB0121303989B210F8012BA2F130030A2BF4D30846704700
S12319E02DE9F04700F23616301DFFF7E6FF0446F01DFFF7E2FF814606F10C00FFF7DDFF66
S1231A00054606F10F00FFF7D8FF804600270FF2882A0322314607EB47005044FFF7CDFEDA
S1231A2078B9A9F5FA600C21BFB201FB0070C0EB40102018182101FB00503C2101FB0080DE
S1231A4003E07F1C0C2FE4D10020BDE8F08770B504460D46802204F588717D48FFF7BCFE0D
S1231A604FF4A06606E04FF48071204600F03BF906F58076AE42F6DB40F2DC5000F0C8FBB2
S1231A800020BDE8704000F022B92DE9F041ADF5A16D724C0020206000F019F900200090FB
S1231AA0022100A800F01FF90098B0F5004F0ED902210DF1020000F016F90098000C00997D
S1231AC060F39D31009100988000800800904FF4A06101A800F007F94FF0FF35256001A8A2
S1231AE0FFF75FFF10B30098B0F5E03F1ED1DFF870814FF48040FFF754FFE0B100F071F882
S1231B00C8B90E220FF280114046FFF756FE90B901A8FFF765FF07464FF48040FFF760FFBD
S1231B20002F18BF002806D0B84204D3009901A8FFF78DFF30E04FF4804700264FF4807293
S1231B4001A800EB06213846FFF70CFF07F58077761C052EF2D340F2BB164FF4807101A8EA
S1231B6000F0C1F825604FF4807201A93846FFF7F9FE07F58077761EEFD100F032F8040084
S1231B801CBF4046FFF7F2FE204600F0A0F8642000F03EFBFFF79EFE0DF5A16DBDE8F081A7
S1231BA010B52C4C20682C49884204D100202060FFF78DFEA0B9FFF7D3FE20B1606840F638
S1231BC0B83188420CD34FF48040FFF7EAFE38B100F007F820B94FF48040BDE81040C9E636
S1231BE010BD4FF48040CEE61948017801B91D487047002818BF002A10D05318B3F5807F92
S1231C0098BFFF290AD8C1F580739A4288BF1A4601F1005101F5442100F038BD70470028D1
S1231C2018BF002A10D05318B3F5807F98BFFF290AD8C1F580739A4288BF1A4601F10051DD
S1231C4001F5422100F022BD70470000FEBF010074E8FF1F00E0FF1F21433412F4E8FF1FC7
S1231C6000FF0100100100004A2D4C696E6B204F422D4D423941463331324B2D5370616E7D
S1231C8073696F6E200000007777772E7365676765722E636F6D00004A616E4665624D6116
S1231CA0724170724D61794A756E4A756C4175675365704F63744E6F76446563002918BF62
S1231CC0002803D0294A126852691047704701B5012101E001B5022100A8FFF7EFFF01BD73
S1231CE001B50421F8E709B9002070471F4A12689268104710B51D4C201D00F08FFAFFF77F
S1231D0065FB1B48206010BD1A4800F0FBBC1648002101701548006800690047FFF762BC2D
S1231D2038B50446114D03E00221281D00F0D4FAFFF758FC50B1FFF753FC012806DB0C4813
S1231D40286001212046FFF7CEFF32BDFFF74AFC0028E9D0002100A8FFF735FC0028E3D5D0
S1231D604FF0FF3032BD000045F7FF1FE0E3FF1FA4360000E4E3FF1F0A4601462F48007882
S1231D80FFF7EEB80A4601462C484078FFF789B813460A46014629480078FFF793B8274820
S1231DA04078FFF734BA2548007801E0234840782421234A01FB0020C068704701230022A7
S1231DC00121DBE780B5009313460A4601461B480078FFF7E1F802BD13460A4601461748AB
S1231DE04078FFF74EB810B50446FFF750FA1C21144A01FB00200C30FF218170C170017135
S1231E00012194F9002001FA02F263569940114301800FF23401816108482188016010BD5A
S1231E20014606484078FFF74FBA04480078FFF793B802480078FFF74DBA000048E6FF1F42
S1231E4050E6FF1F28E7FF1F4A2D4C696E6B000030B5802080F3118800BF00BFDFF8B80357
S1231E6081680022027182F3118800291CBF0A68002A21D04B6954699C421DD100E02246BC
S1231E80146814B165699D42F9D0802383F3118800BF00BF0B6804698C4208BF0361086A0C
S1231EA0036018620A621068086000B10162116092F8390082F83800002080F3118830BDE2
S1231EC038B5DFF8544300206071206A00F180406062E16908001CBF20468847002080F3C0
S1231EE01188E56826E0802080F3118800BF00BF206920B1686921694969884221D3287CFF
S1231F00400713D5E868216A401A012809DA284600F0DBF8802080F3118800BF00BF287C4E
S1231F2078B1E868616A411A48BF6062002080F311882D68002DD6D1802080F3118800BF35
S1231F4000BF31BD70B5DFF8D0420020607001202070802080F3118800BF00BFE06B0100AB
S1231F6005D080470020E063606384F83800002080F3118800F0EEFB0078CD281CBF7D20FD
S1231F8000F0EEFBA06800281CBFC16B002904D009680A001CBF4068884794F8310040B1B5
S1231FA0A06894F8301080F83810207908B1FFF74FFFA06820B1017C11B9416B491C41631E
S1231FC0206948B304E028682061002080F31188802080F3118800BF00BF256925B32E7C1E
S1231FE016B370070ED5E868216A411A012905DA284600F06AF8287C20B90DE0616A411A2B
S123200048BF606206F0FB001028DCD1A86880684068007C0028D6D1802080F3118800BFC7
S123202000BF01E0FFF74CFF60790028FAD1206910B32069007C0028206902D0806880684B
S12320404068A060C06A0078CD281CBF782000F087FBA068C16B21B149680A001CBF406814
S12320608847A06890F8381084F8301084F83110016B491C016307E084F8310084F83000C7
S1232080A060207080F31188204670BD6248407808B980F31188704710B55F4C2078401EC1
S12320A02070207880B9606870B1802080F3118800BF00BF606818B100F03CF80020207043
S12320C0607808B980F3118810BD38B58168524C41B1226AC2600A68496802B151600A6085
S12320E000218160017C11F0030101740FD1216971B92061207820B900F01CF800202070A9
S123210001E001206071607808B980F3118831BD42694B699342ECD38142EBD09A42F6D141
S123212003461B68002BEED05D69AA42EBD18B42F7D1DEE701202070204600F06EBB38B501
S12321404169354C2278521C227004F10C0200E01A46136813B15D69A942F9D303600262F0
S1232160106043B118625A698A420CBF90F83910002180F83810017C39B900F02FF8FFF7F5
S1232180A4FF607808B980F31188BDE8314083E738B5214C25782078401C2070204600F0A2
S12321A03CFB2570607808B980F3118831BD10B500F066FB18480121017000F0CBFA0446B4
S12321C000F0CCFA001BA0F12002012A05DBCD212046BDE81040FFF708BB10BD802181F388
S12321E0118800BF00BF70470B490A7832B1002282F311880A6A121AFCD47047802282F3E6
S1232200118800BF00BF8968C86004200874BFE70149096A0818E7E728E0FF1F10B580210D
S123222081F3118800BF00BF074C6178491C617008220021FFF7D9FA6078401E60706078BB
S123224008B980F3118810BD28E0FF1F38B505460E4C2078401C2070802080F3118800BF39
S123226000BF6078401C6070284600F04BFA284600F014FB6078401E6070607808B980F375
S12322801188BDE83140FFF707BF00BF28E0FF1F38B50446802080F3118800BF00BF0D4D2F
S12322A06878401C6870207938B94821204600F005FB6079022805D102E06079012801D02F
S12322C0002020716878401E6870687808B980F3118831BD28E0FF1F70B50446802080F3F0
S12322E0118800BF00BF104D286A0E18207980B932464821204600F0FFFAA868C068301A2A
S1232300012801DA012070BD802080F3118800BF00BF607901281CBF00202071687808B90E
S123232080F31188002070BD28E0FF1F00B500BF130096469446103928BFA0E80C50FAD8F7
S12323405FEA417C28BF0CC048BF40F8042BC90728BF20F8022B48BF00F8012B00BD00006E
S123236038B51E4C2078401C2070802080F3118800BF00BF1A4D2878401C28706878401C1D
S1232380687018480068010018BF80472078401E20706878401E68702878012803D16868F1
S12323A008B100F04DFA2878401E2870002080F3118831BDD4E7D3E738B504461546094821
S12323C00160204600F0A4F82946204600F0D3F82046BDE8324000F09DB8000044F7FF1FFB
S12323E028E0FF1FC0E3FF1F7D487E4901607E4901607E48002101607D48016B0909090148
S12324000163016B41F009010163016841F00201016041688907FCD5416BC908C900416357
S1232420416B41F002014163042181630921C163016841F0100101600021016141618169A2
S1232440890889008161C16989088900C1614168C906FCD5016821F0E0010160402101604F
S1232460416801F0E0014029FAD16248624901600120704738B5614C2078401C2070604D50
S12324802878401C2870FFF734FA00F088FA00F023FB802080F3118800BF00BF2078401EE0
S12324A020702878012803D1686808B100F0C8F92878401E2870002080F3118831BD10B53C
S12324C0802080F3118800BF00BF4D4C6078401C60704C4849F6404141600521016000F0C5
S12324E011F800F00FF8411EC9B200F00CF80F2000F010F86078401E6070607808B980F3D1
S1232500118810BDFF210F2035E0000030BFFDE700207047802181F3118800BF00BF4028AF
S123252027DA10280ADB10384111374A012300F01F0003FA00F042F821001AE03349042841
S123254003D1086840F480300AE0052803D1086840F4003004E0062804D1086840F4802065
S1232560086006E00F2804D12648016841F002010160FFF78BBD38B5002440281FDA1028A9
S123258006DB00F01EF8224A15182C78297014E00428B4BF01220022C31F042B9B410D2880
S12325A00CBF0125002552EAD3722A4307D100F008F8184D001F445D4155FFF767FD2046D0
S12325C032BD802282F3118800BF00BF704700E000BF0848002101600020704700000000DB
S12325E0001C014051E5CC1AAE1A33E5081001400000014008ED00E00000000044F7FF1FB6
S123260028E0FF1F10E000E000E100E024ED00E0F0E300E018ED00E0DFF800F0B9E3FF1FF5
S12326200E214843401E7FF5F7AF7047F0B590B0044610460F2500AA2E46042706F0010CA8
S12326407608BCF1000F18BF5E407F1EF6D142F825606D1EF0D514F8013B584000F00F0372
S123266052F8233083EA101000F00F0352F8233083EA1010491EEED110B0F0BD80B548F2FE
S12326800843FFF7D3FF80B202BD000062B38B0708D0521E11F8013B00F8013B00F0248036
S12326A08B07F6D1830740F0208000BF103A07D330B4B1E83810103AA0E83810F9D230BCEA
S12326C0530724BFB1E80810A0E8081044BF51F8043B40F8043BD20724BF31F8022B20F83C
S12326E0022B44BF0B7803707047083A07D3B1E80810083A40F8043B40F804CBF7D2530749
S1232700E4E7000038B50446802080F3118800BF00BF0F4D6878401C6870012020712068DF
S123272068B12878401C2870204600F005FA20B9607901281CBF00202071FFF7ADFC6878AD
S1232740401E6870687808B980F3118831BD00BF28E0FF1F0048704748F7FF1F68467047FE
S123276006490A78521C0A7000224A7082F311880349087008780028FCD1704728E0FF1F9C
S12327804DE6FF1F35488168002904BF08B008E0EFF30982A2F12802036882E8F84F8368C1
S12327A05A60FFF7CFFB816879B14A6892E8F84F036002F1280282F3098890692849814262
S12327C002D013F47F4F43D07047264826490968401A80F308884FF08071C1612349816139
S12327E07FF0060E704701BC2046DFF884E000BDFEE7204800681C490968401A203820F033
S1232800070080F308884FF000011448417081F3118862B600F018F8FEE703680CB44FF0E9
S1232820000141704FF0000181F311881249134A0A604FF0800181F311880CBC03607047C4
S12328400D490E4A0A6070470B490C4A0A6070474FF0000181F311887047000028E0FF1FB0
S12328603628000028F9FF1F803700000D250000F12700000000000004ED00E000000010D5
S1232880EFF3108072B604490A6842F47F020A6080F31088704700BF20ED00E0802181F337
S12328A0118800BF00BF002101710348407808B980F31188704700BF28E0FF1F00B585B014
S12328C0029001900B4A93680393802383F3118800BF00BF0368009300AB0360009800B166
S12328E04360906800AA82600174FFF751FC05B000BD00BF28E0FF1F30B585B00290019061
S1232900114CA3680393802383F3118800BF00BFA368DA60256A521B012A04DA607880B92A
S123292080F311880DE00268009200AA0260009800B1426000A8986041F004001874FFF750
S123294027FC05B030BD00BF28E0FF1F00B589B02022002100A8FEF748FF234900A8FEF78B
S123296021FF0C208DF8040028208DF805000020ADF80600202100A8FFF7A0F909B000BDF3
S123298000B5C1B04FF48072002100A8FFF747F94FF4807100A8FFF791F941B000BD10B50A
S12329A0124C2068401C20600A281AD110480168491C01600F484168491C41600020206007
S12329C00D48006820B90D48006A0D49884201DAFEF77FFF6068401C60600A2804BF002037
S12329E0606010BD0000000001006088C4E3FF1FFCE8FF1F00E0FF1FF8E8FF1F28E0FF1F74
S1232A00C0D40100802080F3118800BF00BF002000F0D0F8F6E710B586B0012812D004280C
S1232A2019D0052822D006284ED0072823D00B284FD0E62824D0ED2843D0F02823D0FE286F
S1232A4025D044E0FFF7D0F804467020FFF742F97021204632E0FFF73DF942F6E360FFF7EA
S1232A6039F94FF40060FFF735F932E0022102A8FFF739F92DE0082103A8FFF71FF928E05B
S1232A80FFF77EFF25E00020FFF72AF921E0042101A8FFF728F9042100A8FFF724F9019822
S1232AA040B90078FFF713F90198401C01900098401E0090009860B101460198FFF7FEF81E
S1232AC007E0FFF743FF04E0FEF7DFFF01E0FFF799FF06B010BD704738B515490A1D01F10F
S1232AE02800C3681BB101210174517016E0D3695B1CD361D1E90A45641C45F10005C1E910
S1232B000A45146A1B1B5CBF01235370027A2AB1521E0272D2B20AB90120087105480468D7
S1232B2002E0606880472468002CFAD131BD00BF28E0FF1F44E6FF1F70B50446002580204E
S1232B4080F3118800BF00BF0E4E7078401C70700BE0C068017C490705D5C168326A891A45
S1232B600129B8BF0125FFF7B0FA20680028F0D17078401E7070707808B980F31188284630
S1232B8070BD00BF28E0FF1F022807DA0A21114A01FB002101224A70FEF7ACBE7047022854
S1232BA007DA0A210B4A01FB002100224A70FEF7AFBE704702280CDA0A21064A01FB0021F6
S1232BC04A7892F001024A7018BFFEF793BEFEF79FBE7047CCE3FF1F7047000070B50028F9
S1232BE00EBFDFF85004DFF84C3403EB80000346002506E0068801F8016B361201F8016B20
S1232C006D1CB5EB520FF5D3D00744BF1878087061BD18B5DFF82014088840F080000880BE
S1232C20DFF81804B0F8032042F40042A0F80320B0F8072042F40042A0F8072001220092E4
S1232C40DFF8FC230AE0009B32F82330009C43F4004322F82430009B5B1C0093009B062B83
S1232C60F1D3DFF8E0339B888B80DFF8DC339B7A002B0B8812BF43F001034FF6FE74234099
S1232C800B800B8843F008030B800B884FF67F7423400B80002101E00099491C0091009966
S1232CA0B1F57A7FF8D3B0F803104904490CA0F80310B0F807104904490CA0F8071001216C
S1232CC009E0009932F82110009B4904490C22F823100099491C009100990629F1D33D2110
S1232CE001704FF48041A0F8071011BD80B5FEF718F8C00171E180B5FEF713F8C00159E161
S1232D0070B592B0D14C207F617F01EA0005E80709D5207F00F0FE002077CB48C07940F04F
S1232D200200FEF753FA680705D5207F00F0FB002077FEF747FA280707D5FFF76AFFFEF74C
S1232D401EFA207F00F0F7002077E80603D5207F00F0EF002077A80605D5207F00F0DF0069
S1232D602077FEF72AFA208C400505D5208C400444BF0020FEF7ACF9A08C400529D5A08C8C
S1232D80400426D5207F800713D5082200A90020FFF724FF20884FF6FF510840208000F0C1
S1232DA04AF8207F00F0FD00207700A8FDF770FD0FE0A08C10F07F0504D02A4602A90020F3
S1232DC0FFF70CFF00F037F82A4602A90020FEF70AF901249B4D9A4800EB84000188490567
S1232DE024D50188490421D5062161434A5DEAB14919497831B144F08000FDF779FFFEF7E3
S1232E0067F913E0008810F07F0604D0324602A92046FFF7E3FEE0018D4900220A50204681
S1232E20FDF766FF324602A9FEF7DDF8641C062CD1D312B070BDA08C4FF6FF310840A084F6
S1232E407047BCB50C461546FDF76BFF10F07F01804804D100F11C0200F11C0303E0754A5D
S1232E6002EB81021346002709E094F800C094F801E04CEA0E2CA2F800C0A41C7F1CB7EBF5
S1232E80550FF2D3EA0744BF22781A7029B901884FF6FF3211400180B3BDC8016C4900222A
S1232EA00A50B3BD6948018841F400710180818C490504D5818C4FF6FF321140818470471F
S1232EC070B504460E46FDF72CFF00F07F0080005E490D18D6B1298841F400712980584929
S1232EE0095A490503D54001594900220A500220FEF7BDFB28884FF6FF510840288024209E
S1232F00554900FB04100021C17170BD28884FF6FF510840288070BD7047474801884FF60A
S1232F20DF7211400180FEF7E3BB30B5454B00221C784CB99C7801258D402C4204D001213C
S1232F4019705870D0B230BD03F20603521C062AEED3FF2030BD417901F07F02038809067E
S1232F6048BF43F480539100007943EA403040F40040364A50524801384900220A50704702
S1232F80704780B5FDF7CDFE00F07F0006212D4A01FB0020808802BD80B5FDF7C2FE10F0A9
S1232FA07F0005D12B48018841F48041018001BD80004001294901220A5001BD80B5FDF7F0
S1232FC0B0FE10F07F0006D1224801884BF6FF721140018001BD80004001204900220A500E
S1232FE001BD0020704724211B4A01FB0020B2E7012802D10860002070474FF0FF30704779
S123300080B5FEF73FFB1648FEF7BEFB0A48018841F08001018001884FF67F72114001809D
S1233020018841F020010180FFF7F3FDBDE80140FEF71FBB602104402021044041210440A5
S12330404821044068E0FF1F28E7FF1F24210440282984424421044050E6FF1F3829844268
S1233060012D0000B80B0000303030303030313233343536000000006613010194360000C1
S12330809C360000000000000000000000000000000000000000000000000000000000005A
S12330A00000000000000000004000000000000000000000000000000000000000000000CC
S12330C00000000001000100400000000C00400000000C00400000000C00400000000C00BA
S12330E0400000000C00400032000000DFF800F0892B0000DFF800F09F2B0000DFF800F03B
S1233100813500008D49884204D38D490818400BC01C7047B0F5004F07D3A0F500404FF4C4
S1233120C031B0FBF1F0801C7047800B7047032805D3400300F1005000F53A2070470228C2
S123314002D34FF400407047800370477D487E490A78D20707D57D4A1368DB0748BF1060C4
S12331604FF0FF324A607A490A78D20708D5794A1368DB0748BF1060FF200871002008716E
S123318070476E49884227BF734800214FF08040012107E06949884227BF6F4801214FF0AF
S12331A0804002210160006870472DE9F84F04460025A668D4F8008067683846FFF7E1FF5F
S12331C05E48874206D3DFF8949165480090DFF894A106E041F2505940F6A8200090DFF837
S12331E088A14FF2F00BA7F800B038884AF6AA20A9F80000009845F2555101804AF2A000DA
S1233200A9F8000038F8020B27F8020BDAF80000FFF79CFFDAF8000010F0030FF8D080070A
S123322005D503252760A7F800B0388801E0761EDCD13846FFF7AEFF2846BDE8F28FF8B56E
S123324000243E4A904203D3444A454B454D04E041F2505240F6A823434D00EB81064AF66A
S1233260AA20108045F25551198048F2800717801080198043F23000308020882868FFF7B6
S123328065FF286810F0030FF9D0800704D54FF2F0003080308803242046F2BD2DE9F14FD0
S12332A00C4606460027DFF89480009818B32046FFF73DFF8246C24528BF4FF4005906D235
S12332C0BAF5004F2CBF4FF4C0394FF480490025D346FFF73BFF5BF8040B10F1010F0AD1FD
S12332E06D1CB5F5807F02D1FFF730FF0025B9F10409F0D11BE05046FFF743FF00204FF2D9
S1233300F0010180008800215046FFF798FF070003D05046FFF73EFF0CE0C24504D20121DD
S12333205046FFF78CFF07465046FFF733FF641C761EBAD13846BDE8F28F000000000C20F8
S12333400000F4DF51E5CC1A08200140002C014008100140001C014000000E20A80A0C20E2
S123336054050C2008000E20080000402DE9F04387B004460D461646EFF3108872B6C3B1B7
S1233380FFF7C0FEFFF7D3FEA04212D12046FFF7B9FE07463019401EFFF7B4FE814606E08D
S12333A00023002239460120FFF778FF7F1CB945F6D2009501947010029000A8FFF7F5FE89
S12333C088F31088324629462046FFF797FE60B907B0BDE8F0830020FFF788FE641CB4EB5B
S12333E0460FF8DB0020FFF785FE0024F7E70123BCE710B5EFF3108472B6FFF783FE01461E
S1233400002300220120FFF749FF84F3108810BD0E214843401EFDD5704700000000000087
S123342004480168002904D5016841F0004101607047FEE72CED00E0F2E7F1E7F0E7EFE7A2
S1233440EEE7EDE7ECE7EBE7EAE7E9E7E8E7E7E7E6E7E5E7E4E7E3E7E2E7E1E7E0E7DFE790
S1233460DEE7DDE7DCE7DBE7DAE7D9E7D8E7D7E7D6E7D5E7D4E7D3E7D2E7D1E7D0E7CFE770
S1233480CEE7CDE7CCE7CBE7CAE7C9E7C8E7C7E7C6E7C5E7C4E7C3E7C2E700002DE9F041FE
S12334A004460E4690461D46089F44220021FEF79CF9201DC0F81080017B134A127811433D
S12334C0017384F8397006B10662069E8662079F47623A46CD213046FEF787F9B819C00863
S12334E0C000002140F8501D4FF08071416407490164C5646FF00201416260602046BDE8BF
S1233500F041FEF71CBE00BF4FE6FF1FE7270000E0B5802080F3118800BF00BF11484178B6
S1233520491C417000F02AF8FEF73AFBFFF74FF8FEF73DFEFEF7C3FF0B48022102914FF4C5
S1233540606101910090094B01220FF2280100F56060FFF7A3FF064801210170BDE80740C9
S1233560FFF747B928E0FF1F00E9FF1FE53500004EE6FF1F4A2D4C696E6B000070470000FC
S12335800300002013F0030F09D0521E22BF13F8010B11F801CBB0EB0C00F3D07047121F87
S12335A022BF53F8040B51F804CB6045F7D0121D0AD200BA9CFA8CFCB0EB0C0038BF6FF068
S12335C0000088BF01207047521E22BF13F8010B11F801CBB0EB0C00F6D0521C08BF104693
S12335E07047000082B0FEF721F9FFF7F5FA0020FFF7CAFAFEF77EFBFFF76DFA0F4C104D8D
S123360004E0FFF7D7FA3220FEF702FEFEF786FB0028F6D0012028600020FFF7B5FA06E0FC
S123362000A8FEF77DFB9DF80000FFF7F4F920780028F5D0FEF76BFBE8E700BF45F7FF1F31
S1233640F8E8FF1F013000002B2F0000572F0000812F00001B2F0000832F0000E32F000099
S1233660192F0000C12E0000A52E0000ED2C0000F72C0000992F0000432E0000BD2F0000DB
S1233680E72F0000F12F000000000000000000000000000053454747455200004A2D4C6907
S12336A06E6B0000D9150000DD15000093150000C7150000231400002B15000057150000E6
S12336C037140000C91400001916000010B5074979441831064C7C44163404E0081D0A689D
S12336E0511888470146A142F8D110BD0800000028000000DBDFFFFF88130000C0E3FF1F8A
S12337000000000027DFFFFFB803000058F9FFFF08E0FF1F00000000080C101418203031C0
S123372000040C1014181C24282C3034FFFFFF3839000000FEF758FE002801D0FFF7C6FFD4
S12337400020FFF7E5FE00F000F800F001B800000746384600F002F8FBE70000C046C04638
S1233760024A11001820ABBEFBE700BF26000200C046C046C046C046FFF7DCFF28A00000CD
S123378000000000FFFFFFFFFFFFFFFFFFFFFFFFFFFFFFFFFFFFFFFFFFFFFFFFFFFFFFFF41
S12337A0FFFFFFFFFFFFFFFFFFFFFFFFFFFFFFFFFFFFFFFFFFFFFFFFFFFFFFFFFFFFFFFF25
S12337C0FFFFFFFFFFFFFFFFFFFFFFFFFFFFFFFFFFFFFFFFFFFFFFFFFFFFFFFFFFFFFFFF05
S12337E0FFFFFFFFFFFFFFFFFFFFFFFFFFFFFFFFFFFFFFFFFFFFFFFFFFFFFFFFFFFFFFFFE5
S1233800FFFFFFFFFFFFFFFFFFFFFFFFFFFFFFFFFFFFFFFFFFFFFFFFFFFFFFFFFFFFFFFFC4
S1234000F806002001D10000B1CE0000B3CE0000B5CE0000B7CE0000B9CE0000000000001D
S1234020000000000000000000000000BBCE0000BDCE00000000000075950000B99700000E
S1234040BFCE0000C1CE0000C3CE0000C5CE0000C7CE0000C9CE0000CBCE0000CDCE0000BC
S1234060CFCE00007D990000A1990000D1CE0000D3CE0000D5CE0000D7CE0000D9CE000020
S1234080DBCE0000DDCE0000DFCE0000E1CE0000E3CE0000E5CE0000E7CE0000E9CE00009C
S12340A0EBCE0000EDCE0000EFCE0000F1CE0000F3CE0000F5CE0000F7CE0000F9CE0000FC
S12340C0FBCE0000FDCE000019C000001BC000000000000000000000FFCE000001CF0000F7
S12340E003CF000005CF000007CF000009CF00000BCF00000DCF0000FFFFFFFFFFFFFFFFBA
S1234100000000000000000000000000000000004A2D4C696E6B204F422D4D423941463336
S123412031324B2D5370616E73696F6E20636F6D70696C6564205365702031372032303165
S1234140352031303A33373A313200436F7079726967687420323030332D3230313520535E
S123416045474745523A207777772E7365676765722E636F6D0000000000000000000000FA
S1234180DFF800F0EDE4FF1F38B5DFF88C4D8268D21DD3080A464168006825682D68A847A2
S12341A020B920688068BDE83240004732BDF8B504461546642601EB410004EB800000F1FC
S12341C09C0721683846FFF7DFFF618A2068CA08125C01F00703DA40D20706D41DB1C91C2F
S12341E001F048F928600020F2BD761EE9D14FF0FF30F2BD70B5044610460025228AD31C42
S123420001EB410204EB820603F007020146F06E00EBD30001F042F9216806F16C00FFF787
S1234220B3FF70B9208AC1082268895C00F0070021FA00F0C00701D4002070BD6D1C642DB8
S1234240EADB4FF0FF3070BD2DE9F04F83B004468A46164604F19000009000AF04F124001F
S123426078604FF0000800988068C01DC00802905AF8041B208AC01C00F00702009B1B6856
S123428003EBD00001F00AF9DFF88C9C002588F0010B57F82800029B226841680068D9F840
S12342A000C0DCF800C0E04728BB65B95AF8041B208AC01C00F0070257F82B301B6803EB73
S12342C0D00001F0EBF8D9F800008068804790B9208AC1082268895C00F0070021FA00F089
S12342E0C00705D488F00108761ECFD1002004E06D1C642DCDD14FF0FF3003B0BDE8F08F64
S123430010B50446216804F14800FFF73DFFDFF8A42D01212046FFF76DFF002802D54FF0C2
S1234320FF3010BD002010BD10B50446216804F14800FFF729FF216804F13000FFF724FFD6
S1234340608CC11C206801F095F8800605D52046FFF7D6FF6FF0010010BD002010BD10B51A
S12343600446216804F16000FFF70EFF012200212046FFF73FFF2046BDE81040D4E783682F
S1234380DFF878CD63450CBF0123002341EA0211C068C0F3C0123AB100F01F02400600F026
S12343A0804040EA026004E0D80640EA836040F0407008430BB940F0005070472DE9F84367
S12343C004460D4601220221FFF7D9FF0746216804F14800FFF7D8FE2046FFF791FF804697
S12343E094F8F000020602212046FFF703FF8146216804F15400FFF7C7FE3A460021204659
S1234400FFF7F8FE07462A4601212046FFF7F2FE0546216804F14800FFF7B6FE94F8F0004A
S1234420000640F0100202212046FFF7E3FE0646216804F15400FFF7A7FE49EA0800384361
S1234440284330434CBF4FF0FF300020BDE8F2832DE9F04104460D4600220221FFF78FFF1A
S12344600646216804F14800FFF78EFE2046FFF747FF074694F8F000020602212046FFF7B2
S1234480B9FE8046216804F15400FFF77DFE324600212046FFF7AEFE48EA070140EA01064C
S12344A02A4601212046FFF7A5FE30434CBF4FF0FF300020BDE8F0812DE9F04104460D4661
S12344C0114694F8F100421E9241D20F2046FFF756FF0646216804F14800FFF755FE20467E
S12344E0FFF70EFF074694F8F000020602212046FFF780FE8046216804F15400FFF744FE17
S1234500324600212046FFF775FE48EA070140EA01062A4601212046FFF76CFE30434CBFEE
S12345204FF0FF300020BDE8F08170B504460D4601220221FFF723FF0646208CC01C00F0EF
S1234540070294F8F0100906E36B03EBD00000F0A5FFA08BC01C00F007023146E36B03EB60
S1234560D00000F09BFFE08BC01C00F007022946E36B03EBD00000F091FF606CC01DC3082E
S12345802268216CE06BDFF8904924682468A04770BD2DE9F84F8046894692461F4656460E
S12345A00A9CC4F1040B0B9D012E08D13DB1D8F8001008F14800FFF7E7FD002809D400AA45
S12345C003214046FFF7F3FD002806D54046FFF7C6FE4FF0FF30BDE8F28F00980BEA0901D9
S12345E0C900C840009000983870022CA1BF0098000A7870032C05DB0098000CB87000988B
S1234600000EF87098F8F10000B9A144E719761ECAD15046BDE8F28F2DE9F04F85B08046C6
S12346208A4691469B460E9F3A46FFF745FF002844D403AA03214046FFF7B9FD00283DD40B
S12346400F9C7CB309FA07F50120B8400290E668AE4232BF00202E46012001900298009033
S12346605B4626FA07F251464046FFF792FF002824D4A0683018A060E168884202D320461A
S12346802168884798F8F10000B9B244B344AD1BDDD14046FFF748FE00284CBF6FF00200CB
S12346A048460DE001200190B84000905B464A4651464046FFF76DFF0028EAD54FF0FF303C
S12346C005B0BDE8F08F2DE9F0470D4690469A460024068BB0F81A90102718F0030014D179
S12346E0F008405D06F00701C840C00709D4BAF1010A06D5F11C284600F0BCFE48F8040B72
S1234700641C4E447F1EEBD11CE0F008405D06F00701C840C00712D4BAF1010A0FD5F11C3F
S1234720284600F0A7FE08F8010B000A08F8010B000A08F8010B000A08F8010B641C4E4412
S12347407F1EE2D1089840B1816801EB84018160C268914224BF016888472046BDE8F0879F
S12347602DE9F44F84B004461D460222FFF7A4FE002864D404F1E40620680290B168C91DE7
S1234780CB080DF108091818C9F80400029A71683068DFF86C7C3F68D7F800C0E0470028ED
S12347A04DD14FF00108049FC246DFF8540C006880688047002842D10E980E90212F29D3CB
S12347C0B068C01DC30859F8282071683068DFF830CCDCF800C0DCF800C0E04778BB88F03E
S12347E001080E98009053462A4659F828102046FFF769FF834605EB8B05A7EB0B074FF0F4
S1234800000ADFF8FC0B006880688047B8B9BBF1000FD3D10E98009053462A4688F001000D
S123482059F820102046FFF74EFF05EB80053F1A216804F14800FFF7A7FC002800D53DE7FC
S123484001AA03212046FFF7B2FC15F00301019908BF29600FD029700199090A019105F8D4
S1234860011F0199090A019105F8011F0199090A019105F8011F00B97F1E0498C51B204624
S123488003D1FFF76CFD00201AE7FFF74DFD00284CBF6FF00200284612E72DE9FC4F85B0EF
S12348A004468A46102A38BF00207AD3A06800F0B4FE0490059E10981090049820EA0A0063
S12348C08008401C94F8F1100029374602D1864288BF0746102F15D310980090069B3A460E
S12348E051462046FFF73CFF0546002D4DD494F8F10008B90AEB850A069800EB8500069087
S1234900761B7F1B002F3ED006980290B846D346A06800F082FE03900025039820EA0B0004
S12349208008401C94F8F1100029C14602D1804588BF81461098019002200090029B4A4614
S123494059462046FFF768FE002801D505461CE0451948450BD194F8F11009B90BEB890B0D
S1234960029911EB89000290B8EB0908D5D1002D0BD494F8F11009B90AEB870A069911EBAB
S123498087000690F61B002E97D115F1030F04D02046FFF7C9FC002802D54FF0FF3000E0F5
S12349A0059807B0BDE8F08F2DE9F04F85B006460C46174698463D460E98810044BF012149
S12349C086F8F11000F00F0002900F980F90029802280FD10F98009021463046FFF75DFF73
S12349E000283BD42D1A96F8F11009B904EB800408EB80088DB3A946B06800F00EFE039020
S1234A004FF0000A0398A0430299C840401C96F8F1100029CB4602D1814588BF83460F98B3
S1234A2001900298009043465A4621463046FFF7F3FD002812D4824458450AD102980BFAE0
S1234A4000F096F8F11001B904198044B9EB0B09D8D15046002801D42D1A781B002186F8CB
S1234A60F1102DE62DE9F843814615461E46089F012F08BF4FF0013805D0022F0CBF4FF021
S1234A8001184FF001087A10FFF716FD002848BF4FF0FF3031D42C4616F0030008BF042F07
S1234AA00DD1224631464846FFF7CEFB0446002C22D54846FFF753FC2046BDE8F283307880
S1234AC0022FA2BF717840EA0120032F05DBB178F278120642EA0141084308FB00F203217D
S1234AE04846FFF787FB002803D54846FFF737FC02E0BE19641EE2D1281BBDE8F2832DE994
S1234B00F84F04460D46164698460A98810044BF012184F8F11000F00F074FF0000901203F
S1234B2000FA07FA08E00BFA07F094F8F11001B945198044A6EB0B06E6B1A06800F06DFD8E
S1234B40A843F840401C94F8F1100029B34602D1864288BF8346CDF800A043465A4629467B
S1234B602046FFF77FFF002801D5814602E081445845D8D0002084F8F1004846BDE8F28F65
S1234B802DE9F84F0446884691469B465946FFF7CCFC00285AD44FF0010A0125DE4E8AF01B
S1234BA0010A0AEB4A0004EB800000F1CC07A08AC01C10210091E38A00F007024146D7F8F0
S1234BC000C00CEBE00000F089FC08F14008306880688047002839D12DB30025238CA28B2A
S1234BE0E08B21684FEAD30C1CF801C003F007032CFA03F34FEAD20C1CF801C002F00702D0
S1234C002CFA02F21A43C308595C00F0070021FA00F01043C00706D5022259462046FFF783
S1234C204BFC002812D4D4F8D400C01DC3082268796838683768D7F800C0E04730B9B9F1E0
S1234C400109ACD130688068804708B14FF0FF30BDE8F28F2DE9BC4F82B0044689469A46E9
S1234C60042A50D31AF003004DD10027A06800F0D4FC804628EA09008008401C029988429B
S1234C8016D210F00F0513D00220009053462A4649462046FFF733FF002837D409EB8509A4
S1234CA00AEB850A2F4603E0D9460AEB850AEF190298C11B102928D328EA09008008401CC0
S1234CC0814288BF0146080905014B462A0951462046FFF755FF002815D4216804F130009E
S1234CE0FFF752FA09EB850B608CC11C206800F0C1FB29EA080108EA0B0211438842D3D011
S1234D002046FFF7FDFA002000E0384604B0BDE8B08F2DE9F04782B081460D4616461F46CC
S1234D20DFF8E016FFF74AFB0028DFF8DC4648BF4FF0FF302CD42A7801214846FFF75AFA35
S1234D40002200214846FFF732FA4FF00008206A00F1C80A00AA00214846FFF728FA0098BF
S1234D60C00306D4206ABAEB0000F3D54FF0FF380DE0002202214846FFF719FA32460221C1
S1234D804846FFF714FA6D1C361D7F1ED3D14046BDE8F6872DE9F04782B081460D461646C3
S1234DA01F46DFF86016FFF709FB0028DFF8584648BF4FF0FF3029D4326802214846FFF7F3
S1234DC019FA287840F4803201214846FFF712FA002200214846FFF7EAF94FF00008206A09
S1234DE000F1C80A00AA00214846FFF7E0F90098C00306D4206ABAEB0000F3D54FF0FF3822
S1234E0003E06D1C361D7F1ED6D14046BDE8F68770B582B00446DFF8EC552946FFF7CEFAFD
S1234E200646002200212046FFF7C1F9064300AA00212046FFF7BBF9304315D52946204673
S1234E40FFF7BCFA0646002200212046FFF7AFF940EA060500AA00212046FFF7A8F92843A7
S1234E6002D54FF0FF3076BD009800030FD5DFF89C2500212046FFF7BDF9002200212046C3
S1234E80FFF795F900AA00212046FFF790F90098C0F3404076BD2DE9F04182B00446DFF842
S1234EA06415FFF7D5FA94F8F200DFF8601541EAC008424603212046FFF79CF90022032110
S1234EC02046FFF774F9DFF84065306A851C00AA03212046FFF76BF9002802D54FF0FF374C
S1234EE006E00098C0F3404717B9306A281AEED594F8F20050B128F0080203212046FFF766
S1234F0079F9002203212046FFF751F9002084F8F2003846BDE8F68168E0FF1F2DE9F0415A
S1234F2084B0044601F00108DFF8E414FFF790FA1F2203212046FFF75DF9DFF8C814204676
S1234F40FFF73CFA002200212046FFF730F901AA03212046FFF72BF902AA03212046FFF7DE
S1234F6026F9DFF8A80440EAC8060198C0F3C000804504D0324600212046FFF73BF926F0AF
S1234F80020200212046FFF735F90FF2B44630788DF800000FF2AC4738788DF80100DFF835
S1234FA0605401230DF102020DF1010100A8D5F800C0DCF800C0E047286880688047DFF80D
S1234FC05404006808B1FFF7DBF830788DF8020038788DF80100012300AA0DF101010DF15A
S1234FE002002E683668B047286880688047216804F14800FFF7C8F8002203212046FFF723
S1235000D6F8002858BF84F8F28004B0BDE8F081F0B583B00446DFF8EC13FFF719FADFF8EF
S1235020F82303212046FFF7E5F8DFF8F02303212046FFF7DFF8002203212046FFF7B7F862
S1235040DFF8C463306A871C01AA03212046FFF7AEF8002802D54FF0FF3506E00198C0F39C
S1235060404515B9306A381AEED5E84A03212046FFF7C0F800208DF802008DF80100E04E65
S1235080012300AA0DF101010DF1020037683F68B847306880688047216804F14800FFF7F6
S12350A073F8002203212046FFF781F8284603B0F0BD00002000005002B582B00F218DF88A
S12350C00010012302AA00A9FFF764FE03B000BD002918BF012908D004290AD0082902D06F
S12350E0802904D007E0CE487047CE4870470F20704701207047002070470000FF00010E0B
S12351002DE9F04F95B00446231D02A800F0DEFB0027A0464FF004090FF2143600A806CED4
S123512006C0083E47F001008DF80000232200A902A800F044FB0546082102A800F0DEFAF5
S123514008F19C0102A800F09BFB08F10C08BF1CB9F10109E2D165820027A0464FF00409F6
S12351600FF2D42500A806CD06C0083D8DF80070232200A900F023FB8346042102A800F032
S1235180BDFA08F16C0102A800F07AFB08F10C08BF1CB9F10109E5D1A4F810B000A806CDB6
S12351A006C0083D06208DF80000232200A902A800F005FB0746042102A800F09FFA27825F
S12351C004F1240102A800F05BFB04220A2102A800F0BCFA012102A800F090FA04F148019C
S12351E002A800F04DFB04220B2102A800F0AEFA012102A800F082FA04F1540102A800F019
S12352003FFB0422082102A800F0A0FA012102A800F074FA04F1600102A800F031FB042261
S12352200A2102A800F092FA012102A800F066FA12A806CD06C0083D04208DF8480023222F
S123524012A902A800F0BBFA0746042102A800F055FA278404220B2102A800F077FA0121BB
S123526002A800F04BFA10A806CD06C0083D00208DF84000232210A902A800F0A0FA074651
S1235280042102A800F03AFAA7830EA806CD06C0083D02208DF8380023220EA902A800F0E4
S12352A08EFA0746042102A800F028FAE78304F13C0102A800F0E4FA0CA806CE06C0083E8C
S12352C003208DF8300023220CA902A800F077FA082102A800F012FA0AA806CE06C0083E8C
S12352E003208DF8280023220AA902A800F067FA0746002102A800F001FA678404F13001D3
S123530002A800F0BDFA002700A806CD06C0083D06208DF80000232200A902A800F04FFA0F
S12353208046042102A800F0E9F90FB9C34603E0012F08BFA8EB0B0A7F1C102FE4DB04F121
S1235340CC07394602A800F09BFAA4F814B0A4F816A03A4604F1D80102A800F076FA002797
S123536000A806CE06C0083E07208DF80000232200A902A800F023FA0546042102A800F046
S1235380BDF90FB9AB4603E0012F08BFA5EB0B0A7F1C102FE4DB04F1E40102A800F070FAA4
S12353A0A4F818B0A4F81AA00798206008980999A0EB410015B0BDE8F08F70B504460D4657
S12353C01646F4220021284600F0EBF8042204F10801281D00F080FA2068A860124988426D
S12353E004BF1248A860207B85F8F000607BE860A6F1F40205F1F4012846BDE870407FE6B9
S123540068E0FF1FF0ED00E028E0FF1F03005FA030ED00E054F5FF1F0F005FA00D005FA0BF
S12354203700008001000080FF00010EFF00000E0000000000000000000000000000000015
S123544000000000000010B450F8041B81B102681218001D50F8043BDC0744BFA9F101042E
S1235460E31852F8044B43F8044B091FF9D1EBE710BC704700EBD10001F0070100F0030219
S123548001EBC20182089200106831B1C8405268C1F1200102FA01F10843704730B400EB8F
S12354A0D20002F0070200F0030302EBC3028008800082B1012393405B1E04681C4001FA05
S12354C002F52C4340F8044B046824EA0303C2F12002D1401943016030BC7047F0B5FF244D
S12354E00125059E04E09A1800EBD20002F0070251F8047B90F800C005FA02FEAEF1010ED4
S12355000EEA0C0C07FA02FE4EEA0C0C80F800C0C2F1080C27FA0CF747703F0A87703F0AC3
S1235520C77090F804C004FA02FE0EEA0C0C4CEA17270771761ED6D1F0BD026806E0026848
S123554002F8011B090A02F8011B090A02F8011B090A02F8011B026070470170090A00F821
S1235560011F090A00F8011F090A00F8011F70470178427841EA0221827841EA0241C078D9
S123558041EA00607047012A09DB10F8013B11F801CB634501D001207047521EF5D10020F6
S12355A07047012A03DB00F8011B521EFBD170474FF0000C02E019460CF1010C002902D48B
S12355C04B009842F7D20023BCF1000F09D45B00884224BF401A43F001034908BCF1010C79
S12355E0F5D502B110601846704780B500AAFFF7DFFF009802BD80B5002805D500224042C0
S1235600FFF7D6FF404202BD0022BDE80840CFE7000EFF2808BF0020704710B50446FFF7DD
S1235620F7FF032818BF0E2805D10448844202D040F6FF7010BD40F2FF3010BDFF00010ED0
S12356408169002948BF00214910426942608A188260C90001610021C1607047F0B5C768E9
S123566007F00704456815EBD705D0F808C00CEBD706DF19C7600069B84222D3C4F1080003
S12356808342D8BF1846012787407F1EFFB207EA020C0F4094B195F800E0A74047EA0E07E2
S12356A02F7037780CFA04F43C4334701B1A08D00141697042FA00F07070F0BD86F800C058
S12356C02F70F0BD2DE9F84381460D4616461F46D9F80C8008E02346F2B2E9B24846FFF7DD
S12356E0BDFF3F1B360A2D0A012F04DB092FACBF08243C46EFE74046BDE8F28370B50446D4
S12357000D00E66807D00123002200212046FFF7D9FF6D1EF7D1304670BD38B504460D4638
S1235720082D08DB08230022FF212046FFF7CAFF083D082DF6DA012D07DB012300220121F9
S12357402046FFF7BFFF6D1EF5E731BD2DE9F0410446884616462068C7780078C01B851B61
S12357600423032200212046FFF7ACFF1DB129462046FFF7D2FFE568002F334605D101205B
S1235780711E00FA01F241460DE0002241462046FFF798FF022F03DB791E2046FFF7BDFFBB
S12357A00123012211462046FFF78CFF0123012200212046FFF786FF2846BDE8F0812DE97D
S12357C0F047044688461646206887784078C01B451E0323012200212046FFF773FF2DB187
S12357E02B46002200212046FFF76CFFE5684FF0010909E000225346D2B218F8011B2046DA
S1235800FFF760FFA6EB0A06012E0CDB4FF0080A082ED8BFB246002FECD1092EEADA701EED
S123582009FA00F2E7E73FB13B46791E09FA01F200212046FFF746FF01231A4600212046D6
S1235840FFF740FF2846BDE8F08770B504460D4610468168C91DCE080EC80EC50C380C3D92
S1235860A169891BA1610AD432460168606900F033F86069286060693018606122E070BD7F
S123588070B504460D46E068C11DCE082169814209D33246A1686068301800F01DF8E0693E
S12358A0B042B8BFE66160682860606830186860E068A860606900EB46006061A069A0EB6D
S12358C04600A0612046BDE87040B9E60360416182610021C161B3E662B38B0708D0521E70
S12358E011F8013B00F8013B00F024808B07F6D1830740F0208000BF103A07D330B4B1E884
S12359003810103AA0E83810F9D230BC530724BFB1E80810A0E8081044BF51F8043B40F819
S1235920043BD20724BF31F8022B20F8022B44BF0B7803707047083A07D3B1E80810083A0E
S123594040F8043B40F804CBF7D25307E4E750F8041B61B150F8042BD30744BFA9F101036C
S12359609A18002342F8043B091FFAD1EFE77047DFF800F0F1E4FF1F10B500F09BFF044602
S1235980702001F044F870212046BDE8104001F016B870472DE9FC47804600208DF8000020
S12359A04FF0FF3001F01FFD01ADB8F1CD0F07D1022101A801F038F89DF80400697805E011
S12359C0032101A801F030F86878A97800EB012080B200F107094FEAE9067400601C01F094
S12359E076FD054677196DB9204601F024F8304601F004F806208DF80000012100A800F0F4
S1235A00DEFF57E03146384601F00EF83146284601F021F8002409F0070901F03AF8311AF8
S1235A20A1EB040A20B1BAF1FF0FF6DD2AF03F0A4FEACA03B14204BFA9F10700C3189DF83B
S1235A400000B0B9DFF84C0C0078002818BF042805D1E219E119601901F0C1FD06E0012805
S1235A600DD1E219E119601901F025FE8DF8000005E0D81DC2100021E019FFF792FDB8F149
S1235A80D50F14D05146B8F1CF0F0DD1DFF8080C407848B10AEB0400B04205D1E0199DF853
S1235AA000200AF80020491CE01900F0A9FF5444B442B2D1DFF8E06B307810B99DF8000071
S1235AC03070B8F1D50F0AD000F0AAFFB8F1CF0F01BF707800289DF8000000F095FF284644
S1235AE001F018FDBDE8F3872DE9F843032100A800F09AFF9DF800509DF801009DF80210B5
S1235B0000EB0124012005F00F0188404610671C384601F0DCFC5FEA000807D1204600F0E4
S1235B208AFF384600F06AFFBDE8F18328112146404625D100F08FFF002500F0AAFF211A55
S1235B404F1B18B1FF2FF8DD27F03F0726B106FB07F0800A01F0CBFF394607EB0509A14535
S1235B6004D105EB080000223A54491C05EB080000F046FF4D46A542DFD100F051FF0DE0BB
S1235B8000F052FF1EB106FB04F0FFF7F1FE002004F808003946404600F011FF404601F077
S1235BA0B9FCBDE8F1832DE9F04F85B0022100A800F03AFF022104A800F036FF022103A8D3
S1235BC000F032FF022102A800F02EFF022101A800F02AFFBDF8000000EB4000093001F0C7
S1235BE076FC8046BDF8000000EB080900EB090B0146404600F018FFBDF80010484600F0A2
S1235C0013FF019E029F049DBDF800A003A8008800EB0B04802080F3118800BF00BF01F0F0
S1235C207DFF01F07FFFADB295B14FEACA0AB6B253465A464146484601F0D1FC6D1E20782C
S1235C40617840EA01203840B04218BF002DEFD101F08DFEBDF80010584600F0B0FE4046EB
S1235C6001F058FC05B0BDE8F08F2DE9F14F884691461D460A9C0B9880B200EB090601200E
S1235C8001F035FF01F04AFF01F04CFFDFF80C7A386AA4B204EB000A4FEAC50B0D9CA4B20F
S1235CA00C9D5B464A464146009801F098FC3078717840EA01202840A04203D0386ABAEB22
S1235CC00000EED5BDE8F18F70B58AB0022104A800F0AAFE022108A800F0A6FE022107A8D9
S1235CE000F0A2FE022106A800F09EFE022105A800F09AFEBDF8100000EB4000093001F041
S1235D00E6FB0446BDF81000051946190146204600F08AFEBDF81010284600F085FE05989A
S1235D2080B20390069880B20290079880B20190089880B20090BDF8103032462146284632
S1235D40FFF793FFBDF81010304600F038FE204601F0E0FB0AB070BD00B583B001F0ABFFAA
S1235D60ADF8000002F028FA8DF8020002F026FA8DF8030002F024FA8DF8040002F022FA9E
S1235D808DF8050002F020FA8DF8060002F01EFA8DF80700082136E080B5042000F037FE8B
S1235DA042F6E36000F033FE4FF40060BDE8024000F02DBE04210FF6301000F000BE00B511
S1235DC089B02022002100A8FFF7EBFBDFF8D01800A8FFF7C2FB1D208DF804002C208DF8EE
S1235DE0050081208DF8060000208DF80700202100A800F0E4FD09B000BD00B583B000A802
S1235E0002F02BF8062100A800F0D9FD03B000BD80B502F032F883E0F0B5A3B0002400256F
S1235E20042101A800F000FE02AE0EE000904FF47A710098381AFFF7DEFB074646F825706D
S1235E406D1C641C0198400801900198E8B1C007F7D50D2C03D1022002F036F8EDE7204675
S1235E6002F032F80746A01E022884BF19380128E4D80422802100A800F021FD0098002817
S1235E804EBF002040004010D0E7A90002A800F096FD23B0F0BD30B5A1B000240025042190
S1235EA000A800F0C1FDDFF8FC074FF0FF3101AA0DE0DB0706D50B46042CB8BF036842F84D
S1235EC025306D1C641C009B5B080093001D009B002BEED1A90001A800F071FD21B030BDBF
S1235EE000B583B0042101A800F09EFD042100A800F09AFD019840B9007800F085FD0198F4
S1235F00401C01900098401E0090009818B10146019800F054FD03B000BD80B501F0C9FA2F
S1235F20BDE8024000F079BD00B5C1B04FF48072002100A800F0F7FC6DE0F0B585B04FF0E3
S1235F40FF3426464FF4807001F0C1FA050004D14FF4867000F06FFD49E04FF4807100F003
S1235F6063FD042102A800F05FFD082103A800F05BFD00224FF48071284602F03DF90299FF
S1235F80884234D1082203A90FF25470FFF7FBFA68BB00262F460122314601A800F0C3FCF8
S1235FA017F8010B9DF80410014081421ED1761CFF2EF0D905F12000FFF7DAFAB0B12846EF
S1235FC0FFF7D6FA060011D00422002100A800F0AAFC009810F1010F18BF864206D14FF429
S1235FE08071284600F0B5FC060000D52646304600F013FD05B0F0BD80B54FF4807000F026
S12360001AFD0020F9E200B5C1B04FF48072002100A800F054FC4FF4807100A800F0CFFC6F
S123602041B000BD70B584B04FF0FF3425464FF4807001F04CFA060004D14FF4867000F00A
S1236040FAFC26E04FF4807100F0EEFC042100A800F0EAFC082101A800F0E6FC00224FF486
S12360608071304602F0C8F8009988420ED1082201A90FF26C60FFF786FA38B94FF4807185
S1236080304600F032FC050048BF2546304601F041FA284600F0C1FC04B070BD4FF4807020
S12360A000F0C9BC00B583B0012101A800F0BCFC009088B99DF80400FE2805D0FF280CBFB5
S12360C0032001F01BFD02E0DFF8C80500780090042100A800F073FC03B000BD80B502210E
S12360E000A800F0A1FCBDF800004FF6FF71884204BF0020ADF80000BDF800004FF47A71C8
S1236100484301F0BCFF01BD01F00ABD01F00ABD70B584B0012102A800F086FC042100A8B2
S123612000F082FC042101A800F07EFC00283CD400980199084338D00C4601F0BAF9A04220
S123614002D201F0B6F90446204601F0C0F9050003D100F02EFA04B070BD2246AA21FFF772
S123616020FA019E3146A64288BF2146761A9DF80800642802D0652806D00BE0284600F01E
S123618053FC002808D50DE000982860284600F016FC01E000F00DFA002EE3D10098401E7A
S12361A00090DED1284601F0B5F904B070BD10B582B0012401210DF1010000F035FC2146E9
S12361C000A800F031FC022000F035FCA8B99DF801009DF8001041EA002040F201118842BE
S12361E01FBF40F20131884240F20161884201D140F2FF54204600F010FC13BD80B504214E
S123620000A800F011FC9DF802009DF8031041EA002040F2011188421FBF40F20131884231
S123622040F20161884203D19DF8000002F04CFC01BD0020DFF8701404220B8803B1401C57
S12362401C31521EF9D170472DE9F14F82B00D4690469B460C9C022642F21079DFF84CA416
S123626000270AF20A0030F81C1B19BBC7EBC700800040F80A5000EB0A05C5F8048085F877
S123628008B06C72BDF808006881DFF81004006AE86000A800F088FB009868610198A86103
S12362A0384601F0A0F8FFF7C4FF012822D101F02DFD1FE07F1C042FD5DBDFF8E003006A42
S12362C000270AF10C0131F8022C6AB10A68821A4A4509DB384602F0F9FCC7EBC7000AEBC5
S12362E080000021418103E07F1C1C31042FEADB761EB5D103B0BDE8F08F30B5A7B0012125
S123630002A800F091FB042105A800F08DFB042104A800F089FB01210DF1070000F084FB2E
S123632001210DF1060000F07FFB022101A800F07BFB9DF80800642802D065283DD055E0CD
S1236340DFF86813BDF8040008BBDFF864030288521C0280ADF80420002001F20A0232F8A1
S12363601C3BBDF80440A34202D10028EDD502E0401C0428F3DB9DF8060000909DF80730F8
S1236380049A0599BDF80400FFF75EFF2EE0002201F20A0333F81C4B84420AD1002A25D42B
S12363A0C2EBC20001EB8000DFF8F012096AC1601CE0521C042AEDDB18E0BDF80420002040
S12363C0BA4901F20A0333F81C4B94423DD100280CD4C0EBC00201EB820100224A8102F07D
S12363E075FCFFF726FF08B901F092FC06A80390BDF8041003A8FFF7A0F8042103A8FFF7C4
S12364009CF8102103A8FFF798F8042103A8FFF794F80024A54D102229460398FFF75CFA92
S1236420039810300390641C1C35042CF3DB01F042FC014603A8FFF782F8200100F10C016B
S123644006A800F0BCFA27B030BD401C0428BADBCCE710B584B002210DF1020000F0E4FA66
S123646000241BE0022100A800F0DEFA022101A800F0DAFA02210DF1060000F0D5FA0221CD
S123648002A800F0D1FA02210DF10A0000F0CCFA01A9BDF8000002F0B8FC641CBDF8020076
S12364A08442DFDB04B010BD70B58248006820B97A48006A8049884201DA01F0DDFC7F4D77
S12364C02E68784C012E25DB08D12069401C2061642803DA002002F070FC09E0002002F00E
S12364E059FC002020616FF00040864208BF0126761C2E6040F2B320864218DB6421304672
S1236500FFF773F818B1002002F044FC0FE002F054FC0CE0002E0AD5002002F04EFC2868E5
S1236520401E286010F5FA7F08BF01F0BDFC01F0C2FB40F24C418842206809D36049884274
S12365400ADA10B96068401C606020680A3004E010B16068401C60600020206001F034FE98
S123656020B90120BDE8704002F014BC0120BDE8704002F022BC10B5524C2068401C2060F9
S12365800A2812D150480168491C01604F484168491C416000202060FFF786FF6068401C96
S12365A060600A2804BF00206060BDE8104002F0D9BB802080F3118800BF00BF002002F08B
S12365C00FFCF6E7F5E780B501F0A6FA022001F08EFABDE8014001F0A1BA80B501F0A0FAA0
S12365E0022001F084FABDE8014001F09BBA704780B501F050FD01F0E1FDBDE8024000F00A
S123660003BACD20FFF7C6B9CE20FFF7C3B9CF20FFF7C0B9D520FFF7BDB910B51E4C207871
S123662000F0F2F90020207010BD80B51A4801214170274800F013FA264871E438B504462E
S12366401B2C04D3BA2C38BFFFF7B3FF6134E4B20FF2980050F8240080471048006A0025B5
S1236660124C04F10C011C4A31F8023C6BB10B68C31A934209DB284602F028FBC5EBC500CC
S123668004EB80000021418131BD6D1C1C31042DEADB31BDF404002045F2FF1F28E0FF1F69
S12366A0335A6AB864EFFF1F66F5FF1F5CF5FF1FEC040020CCF5FF1FC0D4010058F5FF1FDF
S12366C0005C260578EFFF1FD0F5FF1F00E0FF1F50F5FF1F10470400C02709007047000064
S12366E04944534547474552335A6AB8C565000079590000C7650000DB650000995D00003F
S1236700DD60000081680000595D0000C5650000FB62000053640000EF650000C5650000DD
S12367202B660000C5650000C5650000C5650000C5650000256000003B5F0000C5650000D3
S1236740C5650000C5650000C5650000C5650000C5650000C5650000C5650000C5650000E5
S1236760C5650000C5650000C5650000C5650000FB5D0000195E0000975E00001161000037
S12367806372000017730000EB710000A5600000F16500000981000083810000E3800000EE
S12367A05D81000003660000096600000F660000A75B0000C95C0000C5650000C56500002F
S12367C01B5F0000156600001B660000C5650000C5650000C5650000BD80000037810000CC
S12367E0096100000D610000197B00001D7B0000C56500007DAA0000C5650000C5650000EC
S1236800C565000027720000295F0000F95F0000B55D0000AF610000FD610000C565000027
S1236820C5650000BF5D0000C5650000E95A0000115E0000C5650000076000009D600000A4
S1236840C5650000C5650000C5650000C5650000C5650000C5650000C5650000C5650000E4
S1236860C5650000C5650000E15E0000C5650000DFF800F083E4FF1FDFF800F07FE3FF1FC4
S123688080B5434800210160012000F0BDF8642001F02DF9802080F3118800BF00BF3D48A2
S12368A04178491C4170384838490160BDE8014001F0FABA3848017801B938487047002806
S12368C018BF002A10D05318B3F5807F98BFFF290AD8C1F580739A4288BF1A4601F10051F1
S12368E001F54421FEF7F8BF704710B5C0B0B1F5807F00D118B94FF0FF3040B010BD4FF4EC
S12369008072014600A8FEF7E7FF254C2046FFF7AFFF00234FF4807200A92046FFF7ACFF34
S1236920002040B010BD002818BF002A10D05318B3F5807F98BFFF290AD8C1F580739A4275
S123694088BF1A4601F1005101F54221FEF7C4BF704700B5C1B0B1F5807F00D118B94FF015
S1236960FF3041B000BD4FF48072014600A8FEF7B3FF00234FF4807200A90A48FFF77CFFA7
S1236980002041B000BD000000E0FF1F2143341258F5FF1F28E0FF1FD0F4FF1F10410000B9
S12369A000400C2000200C2020B10021002206C040F8081D7047564801210170704700291C
S12369C018BF002803D0534A126852691047704770B588B004462022C9B200A8FEF7E1FD22
S12369E04C4D212C2CBF20262646314600A82A6852699047A41BF4D108B070BD0021E7E775
S1236A00444A12689269104701B5012101E001B5022100A8FFF7D3FF01BD01B50421F8E79E
S1236A203C480068006A004709B900207047394A12689268104730B589B00446212C2CBF2E
S1236A4020252546294600A8FFF7EEFF08B9641BF4D109B030BD2F4A1268D2681047042134
S1236A60E2E710B582B0044600A800220260FFF7DBFF9DF800109DF8012041EA02219DF8CE
S1236A80022041EA02419DF8032041EA0261216016BD204800680068004710B51D4C201DDE
S1236AA002F0ECF902F088FA1B48206010BD1B4802F0B8BB164800210170164800680069F0
S1236AC0004702F08CBB10B582B0044603E00221124802F0CFFB02F082FB58B102F07DFBF3
S1236AE0012807DB0B480C49016001212046FFF79BFF16BD02F073FB0028E8D0002100A88A
S1236B0002F05EFB0028E2D54FF0FF3016BD0000F5040020C8EFFF1F2CD00000CCEFFF1F43
S1236B202DE9F14F86B04FF0FF35082104A8FFF77BFFDDF810A0059803900002000A0290BA
S1236B40834600F0B6FC029E864288BF0646B6F5805F84BF360A3602304600F0B8FC0190DB
S1236B6008B938E0AA44BBF1000F01D1029D3AE0D846B34588BFB046ABEB080B5546002746
S1236B8041460198FFF767FFB946FFF782FFA8EB0001A1EB090418B1402CF6D3A0098401A6
S1236BA07FB9019848440090039B224629460698C769D7F808C0E0470746A74208BF0027BF
S1236BC06519A144C145E0D117B14FF0FF3502E04546002DC6D5BBF1000F1CBF5846FFF7FD
S1236BE02AFF019810B1019800F094FC2846FFF714FF07B0BDE8F08F38B50446A0688509D6
S1236C00AD010BD02946206962688018FFF7F8FE206928182061A068401BA06031BD2DE9F0
S1236C20F14F90B0082103A8FFF7FEFEDDF80CA00498029005022D0A2E46112D0BD300F09D
S1236C4038FC8046281D404538BF8046404600F03EFC070002D10AAF4FF01408A8F104096B
S1236C60B14507D2B9F5806F05D94FEA59204FEA402900E0B146DFF8940705904FF40070E1
S1236C800890069700200790099005A801900097029B4A4651461098C469D4F804C0E04746
S1236CA004460998012C02DA361A1BD11DE0A244361BA4EB000B0CD12946E019FEF74DFC4F
S1236CC00BF104010998C019FFF79AFEFFF7A8FE0EE05946C019FFF793FEFFF7A1FE4C45F8
S1236CE0BCD0AC1B3046FFF789FE2046FFF795FE0AA887421CBF384600F00CFC11B0BDE829
S1236D00F08F70B5D4B00446052100A8FFF78CFE9DF8001002A8FFF787FE9DF80100F8B1A6
S1236D209DF8020068B1DFF8E856296A46182069E169096A884740B9286A301AF7D50020C3
S1236D4003E02069E169096A88471290012809DA1298012811DB9DF800008000011D0DE0AA
S1236D60012012909DF8003013AA02A92069E469E468A0470028EBD51290042112A8FFF7B7
S1236D801EFE54B070BD70B5D2B0054602E001A8FFF715FE002442AE012100A8FFF744FE06
S1236DA09DF80000FF281EBF06F8010B641C402CF2D1234601AA42A92869EE69F668B04741
S1236DC0A1009DF80020FF2AE1D101AA42F82400091D01A8FFF7F3FD52B070BDF0B5D3B069
S1236DE00446002542AE02AF0BE0042101A8FFF71BFE9DF8000006F8010B019847F8040B31
S1236E006D1C012100A8FFF70FFE9DF80000FF28EBD12B4602AA42A92069E4692469A0474E
S1236E20FFF7FBFD53B0F0BD10B582B00446012100A8FFF7F9FD9DF800102069E269526985
S1236E40904789E180B501460869C9698969884705E080B501460869C969C9698847BDE863
S1236E600240FFF7DABD80B501460869C969096A8847F4E710B584B00446002003901420D9
S1236E8002900020019004E09DF8001003A8FFF7CBFD012100A8FFF7C7FD9DF8000038B9AF
S1236EA0039B019A02992069E469646AA04766E001210DF10100FFF7B7FD9DF8010001289F
S1236EC0E2D00AD3032804D007D29DF8001002A8DDE79DF8001001A8D9E79DF80000FFF79B
S1236EE0AAFDD6E710B584B004460020039001200290019004E09DF8001003A8FFF794FD35
S1236F00012100A8FFF790FD9DF80000E8B903992069E269926A9047DFF8F4040178491CFA
S1236F200170012000F0E3FD01992069E26952699047029800F0DBFD2069E169C9698847B5
S1236F40044600F01AFD204619E001210DF10100FFF76AFD9DF801000428CCD00AD3062896
S1236F6004D007D29DF8001002A8C7E79DF8001001A8C3E79DF80000FFF75DFDC0E7FFF7E9
S1236F804CFD04B010BD2DE9F04D86B00446042102A8FFF749FD00F08CFA0299814202D39C
S1236FA000F087FA02900298052838D300F08FFA80460298001F08F1040B87B23D46DFF865
S1236FC050A404F11006B5B10020019000903B465A4600212069D6F80CC0DCF848C0E0479F
S1236FE0002848BF00202D1A83440398DAF82010401A0128E7DA00207083012084F830006F
S12370005046006AC8307061781BC8F80000011D4046FFF7D4FC404600F07CFA02E00020F8
S1237020FFF7FBFC06B0BDE8F08D2DE9F04E88B00446082103A8FFF7F7FCBDF80C008000B3
S1237040BDF812108842B8BF0846001D00F03FFA5FEA0009BDF812100AD10846FFF7EBFC51
S12370606FF483700290042102A8FFF7A8FC63E009B1FFF7D9FC00269DF81100B0BBBDF807
S12370800E00ADF81400BDF80C6009F104073546DFF87CA304F1100BCDB102200190BDF898
S12370A01400009033463A4600212069DBF80CC0DCF848C0E047002848BF00202D1A07EB5B
S12370C080070698DAF82010401A0128E4DA0220ABF81A00012084F830005046006AC830A0
S12370E0CBF81400701B0290064619E0012815D104F110070220B883BDF80C300190BDF8A4
S12371000E000090BDF81200C3EBA00009EB800201212069FC68A46CA04700E0BD480290C5
S123712002994846FEF719FAB000011D4846FFF746FC484600F0EEF908B0BDE8F08E10B581
S123714082B00446012100A8FFF76EFC9DF800102069E269D26B9047FFF75FFC13BD10B512
S12371600B46012103B1AC49002839D043680BB141F0020183680BB141F00401C3681C00FF
S123718018BF41F0080104690CB141F0100144690CB141F0200184690CB141F04001C46969
S12371A00CB141F08001046A0CB141F48071446A0CB141F40071846A0CB141F48061C46B0A
S12371C00CB141F480510BB141F40051836C0BB141F49041436C180002D0104698470146E0
S12371E00846BDE81040FFF718BC00B583B001210DF10100FFF718FC012100A8FFF714FC9B
S12372000220FFF718FC60B901A99DF801009DF8002042EA002001F013FD00220199FFF731
S12372209EFF03B000BD00B583B001210DF10100FFF7FAFB012100A8FFF7F6FB042102A8C9
S1237240FFF7F2FB01A99DF801009DF8002042EA002001F0F5FC029A0199FFF780FF03B0C6
S123726000BD30B58FB03422002101A8FEF799F901210DF10200FFF7D7FB04E09DF800100F
