S01B00006D623961663331786B5F636D7369735F6461702E73726563E1
S1130000881C0020F9590000155A0000195A0000F4
S11300101D5A0000215A0000255A0000000000006B
S1130020000000000000000000000000295A000049
S11300302D5A000000000000315A0000355A00001B
S1130040395A00003D5A0000415A0000455A000048
S11300504F3000001F300000495A00004D5A000084
S1130060515A0000BF2D0000372E0000955A0000A1
S1130070955A0000555A0000595A0000955A00003C
S1130080955A00005D5A0000615A0000955A00001C
S1130090955A0000955A0000955A0000655A0000D0
S11300A0695A00006D5A0000715A0000955A000008
S11300B0755A0000795A00007D5A0000815A0000E8
S11300C0955A0000955A00008D3C0000933C0000B6
S11300D0955A0000955A0000855A0000895A00007C
S11300E08D5A0000915A0000955A0000955A00005C
S11300F0955A0000955A0000955A0000955A000040
S113010081B043F21641484300900098401E00908D
S1130110FBD101B070472DE9F0448478C5780278AA
S11301204378DFF8D06C44EA05240579407944EA41
S1130130054444EA006C13F0010009D002F0010404
S1130140B4F1010A6AEB0A0A6FEA0A04E40F746064
S113015013F0020A06D002F002056D1EAD41ED4314
S1130160ED0FF56013F004051CBF9708B7609F06F8
S113017044BF570937601F060DD55FEAD21EDFF86A
S11301809C7902D000263E6005E04FF0010EC7F8CE
S113019000E000277761BCF1000FDFF8846948D0E4
S11301A0DFF88079BC4528BFDFF87CC9DFF87C79AB
S11301B00024BC604FEAD21EDFF8744904FB0CFC37
S11301C0DFF87049BCFBF4FCC7F804C005243C60AC
S11301D030B17468012C18BF002494EA020F23D1B3
S11301E0BAF1000F06D0F468012C18BF002494EA79
S11301F0520F19D135B1B468012C18BF002494EA08
S1130200920F11D19C0606D53468012C18BF002426
S113021094EA521F08D11C0609D57469012C18BF31
S1130220002494EA0E0F02D03C68E403D0D50020E9
S113023038607068012818BF0020F268012A08BFDE
S113024040F00200B268012A08BF40F0040032699D
S1130250012A08BF40F008003268012A08BF40F0B4
S113026020007269012A08BF40F080000870012054
S1130270BDE8F0842DE9F04F85B002460020DFF898
S1130280B85803900291541C01F1020885F820002B
S1130290002614F8011B019182460199002900F0FF
S11302A02681491E019114F8019B5FEA897140F18E
S11302B0CC80BEB36F8909F01100012819D100A9BF
S11302C0484601F0E3FA02281AD139464F1E0029A4
S11302D000F0428195F820100029F0D03CE1394625
S11302E04F1E002900F0388195F82010002940F0B5
S11302F0338100A90E2001F0C9FA0228EFD00026AC
S1130300012840F0F480009908F8011B0099090ABB
S113031008F8011B0099090C08F8011B0099090E43
S113032008F8011B09F001015FEAC96250D5207881
S11303306278B5F80CB040EA0220A27840EA0240A4
S1130340E27840EA02600490241D99B16F8900218B
S1130350484601F09BFA022809D139464F1E00296C
S113036000F0FA8095F820100029F0D0F4E001287C
S113037040F0BD806F8900A9484601F087FA022841
S113038014D139464F1E19B195F820100029F2D026
S113039000992A691140049A914201D040F010005A
S11303A0012840F0A4804FF0000A98E00128EFD122
S11303B000992A691140049A9142E9D05FEA0B013D
S11303C0ABF1010BEAD095F820100029E6D1D1E772
S11303D06F8901B3B6BB0021484601F057FA0228E1
S11303E009D139464F1E002900F0B68095F8201037
S11303F00029F0D0B0E0012879D101264FF0000A9D
S11304006DE039464F1E002900F0A68095F82010B3
S1130410002940F0A18000A9484601F037FA0228DB
S1130420EFD0012863D1009908F8011B0099090A4B
S113043008F8011B0099090C08F8011B0099090E22
S113044008F8011B4FF0000A49E00EB36F8900A9B8
S11304500E2001F01BFA022808D139464F1E00294C
S11304607AD095F820100029F1D075E001283ED10A
S11304700026009808F8010B0098000A08F8010B00
S11304800098000C08F8010B0098000E08F8010B06
S11304902078617840EA0120A17840EA0140E178BF
S11304A040EA01600090241D5FEA896003D500984A
S11304B02861012013E06F8900A9484601F0E6F99C
S11304C0022808D139464F1E002945D095F820103E
S11304D00029F1D040E0012809D14FF0010A039925
S11304E0491C039195F8201000293FF4D6AE012849
S11304F032D106B36F8900A90E2001F0C7F9022892
S113050007D139464F1E39B395F820100029F2D08F
S113051022E0012820D1009908F8011B0099090A5A
S113052008F8011B0099090C08F8011B0099090E31
S113053008F8011B10E0BAF1000F0DD06F890021FB
S11305400E2001F0A3F9022806D139464F1E19B135
S113055095F820100029F2D0029A0399117002999B
S113056048700298A8EB000005B0BDE8F08F2DE9B3
S1130570F04F87B006460020DFF8BC550490039185
S113058001F1020985F8200016F8011BAA7DE9751E
S113059000248046914280F0638116F8011B029189
S11305A00299002900F09D80491E029116F801ABC2
S11305B05FEACA714CBF0B210A2101915FEA8A717B
S11305C040F1DB80002C40D001986F89804512D126
S11305D05FEACA600FD400A9504602F009F8022865
S11305E022D139464F1E002900F03A8195F8201097
S11305F00029F0D034E1B8F10A0F04D04FF00A0812
S11306000A2001F0E9FF00A90E2001F0F1FF022801
S113061009D139464F1E002900F0228195F8201097
S11306200029F0D01CE1002401285AD1009909F8CE
S1130630011B0099090A09F8011B0099090C09F822
S1130640011B0099090E09F8011B5FEACA6178D5FC
S113065030787178B5F80CB040EA0120B17840EAFE
S11306600140F17840EA01600590361D019880450B
S113067004D0DDF80480404601F0AEFF6F8900210C
S1130680504601F0B5FF022809D139464F1E002912
S113069000F0E68095F820100029F0D0E0E0012871
S11306A01FD16F8900A9504601F0A2FF022836D15C
S11306B039464F1E19B195F820100029F2D000993F
S11306C02A691140059A914201D040F01000012896
S11306D007D10499491C049195F8201000293FF48E
S11306E05FAF012840F0BC80B8F10A0F1CBF0A209C
S11306F001F072FF002C6F8900F0A58000A90E2084
S113070001F076FF022840F08C8039464F1E002904
S113071000F0A68095F820100029EFD0A0E0012871
S1130720CDD100992A691140059A9142C7D05FEA58
S11307300B01ABF1010BC8D095F820100029C4D1EE
S1130740AFE7002CC5D1019880451CBF804601F05D
S113075043FF6F890021504601F04AFF022808D167
S113076039464F1E00297BD095F820100029F1D07E
S113077076E00128B5D10124ABE74CB3B8F10A0FF8
S113078004D04FF00A080A2001F026FF6F8900A95F
S11307900E2001F02DFF022808D139464F1E0029F2
S11307A05ED095F820100029F1D059E0012898D1A5
S11307B0009809F8010B00240098000A09F8010BBD
S11307C00098000C09F8010B0098000E09F8010BC1
S11307D03078717840EA0120B17840EA0140F1783C
S11307E040EA01600090361D5FEA8A6003D50098F4
S11307F0286101206DE7019880451CBF804601F007
S1130800EBFE6F8900A9504601F0F2FE02287FF446
S11308105EAF39464F1E19B395F820100029F1D068
S11308201EE001281CD1009909F8011B0099090A4E
S113083009F8011B0099090C09F8011B0099090E1C
S113084009F8011B0CE000210E2001F0D1FE022862
S113085006D139464F1E19B195F820100029F2D05F
S1130860039A04991170039948700398A9EB000046
S113087007B0BDE8F08F2DE9F04F0246884601F13C
S11308800309DFF8B4A281B00020511C8AF82000CB
S11308900A784B78002542EA03268F1C002E7CD070
S11308A017F8014BA00743D5E00758BF761E18D5AB
S11308B0BAF80AB00021204600F0E8FF022809D166
S11308C05FEA0B01ABF1010B67D09AF82010002905
S11308D0F0D062E0012860D1761E02D1E00748BF63
S11308E00E24BAF80AB000A9204600F0CFFF02286F
S11308F009D15FEA0B01ABF1010B4ED09AF820103D
S11309000029F0D049E0012847D1009909F8011BDA
S11309106D1C0099090A09F8011B0099090C09F8D2
S1130920011B0099090E09F8011B002ED4D134E0F3
S113093038787978BAF80AB040EA0120B97840EA00
S11309400140F97840EA0160761E00903F1D00A93D
S1130950204600F09BFF022809D15FEA0B01ABF1AE
S1130960010B1AD09AF820100029F0D015E00128C4
S113097013D16D1C002EDBD1BAF80AB000210E2071
S113098000F084FF022808D15FEA0B01ABF1010BF0
S113099003D09AF820100029F0D088F80050290AD2
S11309A088F8011088F8020001B0A9EB0800BDE83E
S11309B0F08F00002DE9F04F83B005465E4F0191A2
S11309C0002001F1030B87F8200015F8011BBA7D04
S11309D0F9750024914280F0938029786A7841EA7D
S11309E00228AD1CB8F1000F00F08A8015F8019BB5
S11309F05FEAC9704CBF4FF00B0A4FF00A0A504629
S1130A0001F0EAFD5FEA897043D57E8900214846FA
S1130A1001F0EEFD022808D131464E1E00296FD0A8
S1130A2097F820100029F1D06AE0012840F068808E
S1130A30B8F1010807D1BAF10A0F1CBF0A2001F06E
S1130A40CBFD4FF00E097E8900A9484601F0D0FD88
S1130A50022808D131464E1E002951D097F82010A3
S1130A600029F1D04CE001284AD100990BF8011B70
S1130A70641C0099090A0BF8011B0099090C0BF876
S1130A80011B0099090E0BF8011BB8F1000FCFD11F
S1130A9036E02878697840EA0120A97840EA0140E4
S1130AA0E97840EA01600090A8F101087E892D1DD3
S1130AB000A9484601F09CFD022807D131464E1E8C
S1130AC0F1B197F820100029F2D019E0012817D1CC
S1130AD0641CB8F1000FDCD1BAF10A0F1CBF0A2064
S1130AE001F07AFD7E8900210E2001F081FD0228AB
S1130AF006D131464E1E19B197F820100029F2D0C4
S1130B0001990C70210A019A517001998870019819
S1130B10ABEB000003B0BDE8F08F0000B8416642C3
S1130B20A4616642C1C62D00C0C62D0010E000E0DD
S1130B30005A620240420F00601800202DE9F04183
S1130B40054682B028780C46A0F18001202906D2FF
S1130B50214628460020C04602B0BDE8F08104F8D2
S1130B60010B15F8010B162800F26C82DFE810F077
S1130B70170060009200E100F80106021D026A02FB
S1130B803602F80005016A026A026A026A026A020F
S1130B9018011E0144014D0158017901DD01297834
S1130BA0601C0026012938D002292BD004291ED02C
S1130BB0F02914D0FE290AD0FF2901BF4021017079
S1130BC0467002262670B01C02B0BDE8F0814021B8
S1130BD0017001262670B01C02B0BDE8F08103212B
S1130BE0017001262670B01C02B0BDE8F081042219
S1130BF00FF20C5101F006FD04262670B01C02B061
S1130C00BDE8F08118220FF2E04101F0FBFC182648
S1130C102670B01C02B0BDE8F08109220FF2BC417D
S1130C2001F0F0FC09262670B01C02B0BDE8F0818A
S1130C30287840B101282BD168786E4900F0010072
S1130C40C1F8E0001DE068786A4910F00100C1F8BD
S1130C50DC0014D101F026FD0020DFF864144860A4
S1130C600022DFF860044260CA60C2608A60826069
S1130C700A6102610A6002604A61426101E001F0B6
S1130C800DFD002020700126701C02B0BDE8F0812B
S1130C90FF20F7E7297801BB0122DFF82C14554B1C
S1130CA0012008700020DFF8181448600125012095
S1130CB05860DFF8100445600025CD600125DD6033
S1130CC0C56000254D6101255D61456100238B6090
S1130CD083600B6003602270D5E70A460129DCD0EB
S1130CE00229CED1DFF8E013424B02200870002025
S1130CF0DFF8CC134860012501205860DFF8C403F5
S1130D0045600025CD600125DD60C56000258D604E
S1130D1001259D60856000250D6105610D6001253B
S1130D201D60056000254D610121596141612270FA
S1130D30A9E70020DFF8901308700022DFF8801381
S1130D404860DFF880034260CA60C2608A608260E3
S1130D500A6102610A6002604A614261227092E79C
S1130D602878697840EA0120C0EBC001480000906F
S1130D700098401E0090FBD184E70121D1481D4A10
S1130D80416100215161D14900910099491E0091AE
S1130D90FBD141610120607002260020207073E7BE
S1130DA021462846FFF7B7F906466DE728786978A3
S1130DB040EA0120A97840EA0140E97850EA01615B
S1130DC008BFFF203FF45EAFC14ABF48914203D33E
S1130DD001214170416054E700224270BD4A52181B
S1130DE0B2FBF1F1032926BF0322B1FBF2F1012189
S1130DF0416046E7A481664215F8010B08B94FF437
S1130E008070294600F07EF93BE72978AE4801F06E
S1130E1003028908521C01F001010275417530E793
S1130E20002004F8010B012615F8017B16E000BF31
S1130E3015F8018B7F1E22462946404600F036FDF8
S1130E4018F03F0008BF4020C01D05EBD0055FEA45
S1130E50086144BF04EBD00406EBD006002FE7D1B1
S1130E6012E715F8016B98484FF0000C8675002EB8
S1130E703FF407AF06F0030100F1180200F21A0371
S1130E800F0008D015F801EB02F801EB23F802CBB0
S1130E907F1EF444F6D1B60837001DD07F1E15F826
S1130EA001EB02F801EB23F802CBF44415F801EB53
S1130EB002F801EB23F802CBF44415F801EB02F835
S1130EC001EB23F802CBF44415F801EB02F801EB33
S1130ED023F802CBF444E1D100F118021C3039B1FB
S1130EE0491E12F8013BACEB030C20F802CBF7D1FE
S1130EF0B6F1000F3FF4C5AE12F8011BACEB0101D3
S1130F0020F8021B12F8013BC91A20F8021B12F840
S1130F10013BC91A20F8021B761E12F8013BA1EB13
S1130F20030C20F802CBE7D1ABE66748017802292D
S1130F3014D12978C175807D81420FD20E2001F031
S1130F404BFB01F0AAF9002121706070010AA17025
S1130F500526010CE170000E207195E6FF2091E654
S1130F60594829780172AA78697841EA02214181B5
S1130F702A79E97841EA0221818182E6524800789F
S1130F80012806D002280AD00020207060700226B2
S1130F907AE621462846FFF76DF9064674E62146AF
S1130FA02846FFF7E4FA06466EE64748007801282B
S1130FB002D0022806D00BE021462846FFF75BFC4E
S1130FC0064661E621462846FFF7F4FC06465BE642
S1130FD0002020706070A070032655E63A4801781E
S1130FE0012907D0022915D0FF20207002B0022069
S1130FF0BDE8F0816878A97840EA0120E97840EA00
S11310000140297940EA0160009000A9002000F025
S11310103DFC36E614D12978C175807D81420FD21A
S1131020082001F0D9FA6878A97840EA0120E97823
S113103040EA0140297940EA016001F0CDF920E657
S1131040FF201FE6FF2004F8010C02B00120BDE8D8
S1131050F0811D4800214160012264214181012366
S1131060012101750021164841601B494A60154A57
S113107053600023C3600123CB60D36000238360EB
S113108001238B60936000230361136103600123D8
S11310900B6000231360436101234B610023536100
S11310A0C0F8DC300123C2F8DC300023C1F8DC30A6
S11310B0C0F8E0300120C2F8E000C1F8E030704729
S11310C0A4016642A441664260180020DC080200C4
S11310D080969800FF2C3101A48166425370616EA2
S11310E073696F6E00000000434D5349532D444112
S11310F050205370616E73696F6E2056322E350026
S1131100312E300000B9704770B481B0DFF88C27FD
S1131110DFF88C37401E01E0401E15B911F8014B71
S1131120082504F00106761EB641F643F60F9E60CC
S113113000261E6056680096009E761E0096FBD11F
S113114001261E6056680096009E761E0096FBD10E
S113115064086D1E0028DFD101B070BC7047000028
S11311602DE9F0430246DFF83837DFF83067012015
S113117098600024002018600025012018609A60FF
S1131180002018604FEAD20E0120186050089860C1
S11311901C60801801241C6094089C601D60271842
S11311A001251D60C3F808E0002018601D600EEBE7
S11311B007009860002018601D60986018601D602A
S11311C09D6018601D60DFF8DC462060357DE5B168
S11311D015F0030705D000201860012018607F1E59
S11311E0F9D1A80811D000271F6001271F6000272C
S11311F01F6001271F6000271F6001271F60002751
S11312001F6001271F60401EEDD1DFF89CC600203F
S11312101860DCF80000012818BF002001271F60B7
S113122000271F60DCF80070012F08BF40F00200A7
S113123001271F6000271F60DCF80070012F08BF22
S113124040F0040001271F60012840F09C809207B1
S11312504DD500225FF000074FF020084FF0010940
S11312604FF0000EC3F800E0DCF800E0BEF1010F1F
S113127018BF4FF0000E77444FEACE7EC3F80090BB
S11312804EEA5202B8F10108EAD14FF0000EC3F859
S113129000E0DCF800C0BCF1010F18BFF446CE46F4
S11312A08CEA0707C3F800E0FF0748BF082001B134
S11312B00A60CDB115F0030105D000221A60C3F80D
S11312C00090491EF9D1A9080ED000221A60C3F873
S11312D000901A60C3F800901A60C3F800901A6076
S11312E0C3F80090491EF0D1C4F8009026E0ADB1D7
S11312F015F0030205D000271F6001271F60521E4E
S1131300F9D1AA080AD000251D601F601D601F6066
S11313101D601F601D601F60521EF4D127600027EE
S11313200A6820219A6000241C60D71901245208FD
S11313301C60491EF6D19F6019601C60317AF1B1BE
S113134000229A6011F0030205D000241C600124DD
S11313501C60521EF9D1890811D000221A600122A2
S11313601A6000221A6001221A6000221A60012207
S11313701A6000221A6001221A60491EEDD101216F
S11313809960BDE8F083022818BF04282ED1717D2E
S113139041B1960706D5212600271F6001271F604B
S11313A0761EF9D1ADB115F0030605D000271F60F4
S11313B001271F60761EF9D1AD080AD000261E60F1
S11313C01F601E601F601E601F601E601F606D1E18
S11313D0F4D1276009B391071FD40021996021211A
S11313E000221A601F60491EFAD116E005F121019E
S11313F011F0030204D000241C601F60521EFAD1B5
S113140089080AD000221A601F601A601F601A60DF
S11314101F601A601F60491EF4D19F60BDE8F0830D
S11314202DE9F04706460C46DFF8740481B001212B
S1131430816000210160DFF864144A680092009A18
S1131440521E0092FBD1012202604A680092009A67
S1131450521E0092FBD1866002604A680092009A94
S1131460521E0092FBD1012202604A680092009A47
S1131470521E0092FBD172088260002303604B6805
S11314800093009B5B1E0093FBD1012303604B6818
S11314900093009B5B1E0093FBD1B308836000257F
S11314A0056092194D680095009D6D1E0095FBD155
S11314B0012505604D680095009D6D1E0095FBD1CA
S11314C09F18F2088260002303604B680093009B1E
S11314D05B1E0093FBD1012303604B680093009BC8
S11314E05B1E0093FBD1D2198260002202604A681D
S11314F00092009A521E0092FBD1012202604A68B7
S11315000092009A521E0092FBD1826002604A68E7
S11315100092009A521E0092FBD1012202604A6896
S11315200092009A521E0092FBD101228260002296
S113153002604A680092009A521E0092FBD1012276
S113154002604A680092009A521E0092FBD1D54B69
S11315501A600D7D95B12A46002707604F680097F1
S1131560009F7F1E0097FBD1012707604F680097FB
S1131570009F7F1E0097FBD1521EEDD10022026016
S11315804A680092009A521E0092FBD1DFF818E3D9
S1131590DEF80020012A18BF0022012707604F68E7
S11315A00097009F7F1E0097FBD107604F6800974C
S11315B0009F7F1E0097FBD1DEF80070012F08BF4B
S11315C042F00202012707604F680097009F7F1EC8
S11315D00097FBD107604F680097009F7F1E00971C
S11315E0FBD1DEF80070012F0CBF4FF001094FF062
S11315F00009012707604F680097009F7F1E00972E
S1131600FBD142EA8902012A40F0CA80B60775D5A7
S11316105FF000064FF020084FF0000CC0F800C047
S1131620D1F80490CDF80090DDF800C0BCF10109B8
S1131630CDF80090F8D1DEF800C0BCF1010F08BF6E
S11316404FF001094FF0010CC0F800C0D1F804A01C
S1131650CDF800A0DDF800C0BCF1010ACDF800A06F
S1131660F8D14FEAC97C4F444CEA5606B8F1010858
S11316707FF4D2AF4FF0000CC0F800C0D1F8048062
S1131680CDF80080DDF800C0BCF10108CDF8008081
S1131690F8D1DEF800C0BCF1010F0CBF4FF0010916
S11316A04FF000094FF0010CC0F800C0D1F804E07D
S11316B0CDF800E0DDF800C0BCF1010ECDF800E08B
S11316C0F8D189EA0707FF0748BF082204B126605A
S11316D08DB1002404604C680094009C641E009446
S11316E0FBD1012404604C680094009C641E0094A7
S11316F0FBD16D1EEDD101241C6039E08DB10026B3
S113170006604E680096009E761E0096FBD1012668
S113171006604E680096009E761E0096FBD16D1EF4
S1131720EDD101251D602023266886600024046015
S11317304C680094009C641E0094FBD105604C68C6
S11317400094009C641E0094FBD1F71976085B1E7C
S1131750EBD1876003604B680093009B5B1E009392
S1131760FBD105604B680093009B5B1E0093FBD18B
S11317700B7A002B00F084800024846004604C68A1
S11317800094009C641E0094FBD1012404604C6806
S11317900094009C641E0094FBD15B1EEED16FE0AC
S11317A0022A18BF042A57D14C7D24B3B70722D587
S11317B05FF021074FF0000CC0F800C0D1F804E03E
S11317C0CDF800E0DDF800C0BCF1010ECDF800E07A
S11317D07FF4F8AF4FF0010CC0F800C0D1F804E07A
S11317E0CDF800E0DDF800C0BCF1010ECDF800E05A
S11317F0F8D17F1EDED18DB1002707604F680097B6
S1131800009F7F1E0097FBD1012707604F68009758
S1131810009F7F1E0097FBD16D1EEDD101251D6039
S1131820ACB1B30713D400238360212300240460E4
S11318304C680094009C641E0094FBD105604C68C5
S11318400094009C641E0094FBD15B1EEED1856065
S1131850104601B0BDE8F08705F1210300240460BF
S11318604C680094009C641E0094FBD10124046025
S11318704C680094009C641E0094FBD15B1EEDD167
S113188001218160104601B0BDE8F087034A527817
S1131890002A18BFFFF764BCC2E5000060180020EE
S11318A0A8816642B0416642B06166422DE9F047C4
S11318B081B010F03F0308BF402300F040056D1EC7
S11318C0AD41DFF8249DDFF8248DED43ED0FC9F819
S11318D008501DE00127C9F800706F68CDF800704A
S11318E0DDF800C0BCF101070097F9D17608E401E6
S11318F0AEF1010E5B1E44EA5A0ABEF1000F18BF96
S1131900002B0ED12AFA0EF5060648BF02F8015B39
S1131910C3B111F8016BDFF8E85C4FF0000A4FF037
S1131920080EC9F804600024C9F800406C680094EB
S1131930009F7C1E0094FBD1D8F80070012FC9D100
S11319400124C7E701B0BDE8F08730B4DFF8981C84
S113195001228A6000220A6001220A6000220A60D1
S113196001220A6000228A600A6001220A600022C1
S11319700A6001220A604A60DFF8842CD37D02EBFE
S113198043035C8BE4B114F0030305D000250D6020
S113199001250D605B1EF9D1A30811D000240C6051
S11319A001240C6000240C6001240C6000240C60F1
S11319B001240C6000240C6001240C605B1EEDD13A
S11319C0D37D9B181B7E5B1E26D013F0030407D027
S11319D0486000250D60400801250D60641EF7D1A4
S11319E09B0819D0486000240C60400801240C6056
S11319F0486000240C60400801240C604860002406
S1131A000C60400801240C60486000240C6040080D
S1131A1001240C605B1EE5D1D37D02EB4302928B63
S1131A205AB3486000200860012008604860521ED4
S1131A301CD012F0030005D000230B6001230B60BF
S1131A40401EF9D1900811D000220A6001220A60D8
S1131A5000220A6001220A6000220A6001220A6050
S1131A6000220A6001220A60401EEDD10120886034
S1131A70002008600120086005E001228A604860B7
S1131A80002008600A60002008600120086000202F
S1131A908860086001200860486030BC704700001E
S1131AA0F0B50A46DFF8403BDFF8544B012199605A
S1131AB00021196001211960002199601960012138
S1131AC019600021196001211960E57DDDB115F06F
S1131AD0030604D000271F601960761EFAD1A908F6
S1131AE011D000261E6001261E6000261E600126FD
S1131AF01E6000261E6001261E6000261E60012650
S1131B001E60491EEDD1DFF8E46A410859600021E6
S1131B101960316801290CBF0221002101271F60CF
S1131B2087085F6000271F603768012F18BF0027F0
S1131B304FF0010C3943C3F800C0C7085F600027A9
S1131B401F603768012F08BF41F00401C3F800C0CB
S1131B50012918BFC3F808C040F08E80800756D50D
S1131B6000201F274FF0000CC3F800C0D6F800C0B7
S1131B70BCF1010F18BF4FF0000C40EACC704FF0DD
S1131B80010E4008C3F800E07F1EEBD1A77D7D1B4A
S1131B906D1E2BD000271F603668012E18BF00264B
S1131BA0C3F800E06D1E1CD015F0030700F0088098
S1131BB04FF0000CC3F800C0C3F800E07F1EF7D15B
S1131BC0AD080ED000271F60C3F800E01F60C3F803
S1131BD000E01F60C3F800E01F60C3F800E06D1E62
S1131BE0F0D1C3F808E000251D6008E0C3F808E060
S1131BF000251D603568012D0CBF01260026C3F8A1
S1131C0000E0002A3CD040EAC670106038E010685A
S1131C101F22586000261E604008C3F800C0521EF0
S1131C20F7D1A27D521B551E23D0586000201860A6
S1131C30C3F800C06D1E19D015F0030005D00022B2
S1131C401A60C3F800C0401EF9D1A8080ED00022C3
S1131C501A60C3F800C01A60C3F800C01A60C3F861
S1131C6000C01A60C3F800C0401EF0D1C3F808C019
S1131C7002E0C3F808C0586000201860C3F800C030
S1131C80002018600120186000209860186001206E
S1131C9018605860207AE0B110F0030205D00024E7
S1131CA01C6001241C60521EF9D1800811D000224E
S1131CB01A6001221A6000221A6001221A600022AE
S1131CC01A6001221A6000221A6001221A60401E62
S1131CD0EDD10846F0BD00000246DFF80C0981B0E2
S1131CE00121816000210160DFF814194B68009321
S1131CF0009B5B1E0093FBD1012303604B680093A0
S1131D00009B5B1E0093FBD103604B680093009B18
S1131D105B1E0093FBD1012303604B680093009B7F
S1131D205B1E0093FBD1836003604B680093009BB0
S1131D305B1E0093FBD1012303604B680093009B5F
S1131D405B1E0093FBD103604B680093009B5B1EFA
S1131D500093FBD1012303604B680093009B5B1E3F
S1131D600093FBD101234360CB7D01EB4303B3F824
S1131D701A3003B34FF0000CC0F800C0D1F804C00F
S1131D80CDF800C0DDF800C0BCF1010CCDF800C0F6
S1131D907FF4F8AF4FF0010CC0F800C0D1F804C0D4
S1131DA0CDF800C0DDF800C0BCF1010CCDF800C0D6
S1131DB0F8D15B1EDED1CB7D5B181B7E5B1E23D06E
S1131DC0C0F804204FF0000CC0F800C0D1F804C0E3
S1131DD0CDF800C0DDF800C0BCF1010CCDF800C0A6
S1131DE07FF4F8AF4FF0010CC0F800C0D1F804C084
S1131DF0CDF800C0DDF800C0BCF1010CCDF800C086
S1131E00F8D152085B1EDBD1CB7D01EB43039B8BE6
S1131E10CBB34260002202604A680092009A521ECC
S1131E200092FBD1012202604A680092009A521E7D
S1131E300092FBD1012242605B1E11D0002202609D
S1131E404A680092009A521E0092FBD1012202605D
S1131E504A680092009A521E0092FBD15B1EEDD19B
S1131E6001228260002202604A680092009A521E97
S1131E700092FBD1012202604A680092009A521E2D
S1131E800092FBD111E001238360426000220260D2
S1131E904A680092009A521E0092FBD103604A687D
S1131EA00092009A521E0092FBD1002202604A68FE
S1131EB00092009A521E0092FBD1012202604A68ED
S1131EC00092009A521E0092FBD1826002604A681E
S1131ED00092009A521E0092FBD1012202604968CE
S1131EE000910099491E0091FBD1426001B07047F6
S1131EF02DE9F04104460B46DFF8EC0681B00121E0
S1131F00816000210160DFF8F8164A680092009AA7
S1131F10521E0092FBD1012202604A680092009A8C
S1131F20521E0092FBD1826002604A680092009ABD
S1131F30521E0092FBD1012202604A680092009A6C
S1131F40521E0092FBD102604A680092009A521E0F
S1131F500092FBD1012202604A680092009A521E4C
S1131F600092FBD1CD7D95B12A46002606604E68CD
S1131F700096009E761E0096FBD1012606604E68F0
S1131F800096009E761E0096FBD1521EEDD162088B
S1131F904260002202604A680092009A521E009237
S1131FA0FBD1DFF848763A68012A0CBF02220022EE
S1131FB0012606604E680096009E761E0096FBD1B0
S1131FC0A6084660002606604E680096009E761EAF
S1131FD00096FBD13E68012E08BF42F001020126A3
S1131FE006604E680096009E761E0096FBD1E608B9
S1131FF04660002606604E680096009E761E009697
S1132000FBD13E68012E18BF00264FF0010CC0F82A
S113201000C0D1F804E0CDF800E000BFDDF800C056
S1132020BCF1010ECDF800E0F8D142EA8602012AA3
S113203012D001238360002303604B680093009B4C
S11320405B1E0093FBD1012303604B680093009B4C
S11320505B1E0093FBD1E5E0A40740F17F800024E0
S11320604FF01F0E002606604E680096009E761EF6
S11320700096FBD13E68012E18BF00264FF0010CDC
S1132080C0F800C0D1F80480CDF80080DDF800C0AD
S1132090BCF10108CDF80080F8D144EAC6746408A4
S11320A0BEF1010EDED18E7D751B6D1E39D000266A
S11320B006604E680096009E761E0096FBD13E6830
S11320C0012E18BF0026012707604F680097009F64
S11320D07F1E0097FBD16D1E10D007604F680097DC
S11320E0009F7F1E0097FBD1012707604F68009770
S11320F0009F7F1E0097FBD16D1EEED101258560E8
S1132100002505604D680095009D6D1E0095FBD16E
S1132110012505604D680095009D6D1E0095FBD15D
S113212016E001258560002505604D680095009D39
S11321306D1E0095FBD13D68012D0CBF01260026C4
S1132140012505604D680095009D6D1E0095FBD12D
S1132150002B67D044EAC6741C6063E01C681F232C
S11321604460002606604E680096009E761E009627
S1132170FBD1012606604E680096009E761E0096EE
S1132180FBD164085B1EEBD18B7D5B1B5D1E36D0DF
S11321904460002303604B680093009B5B1E009324
S11321A0FBD1012303604B680093009B5B1E0093EB
S11321B0FBD16D1E10D003604B680093009B5B1E27
S11321C00093FBD1012303604B680093009B5B1ECB
S11321D00093FBD16D1EEED10123836000230360C5
S11321E04B680093009B5B1E0093FBD101230360AB
S11321F04B680093009B5B1E0093FBD112E001230C
S113220083604460002303604B680093009B5B1E63
S11322100093FBD1012303604B680093009B5B1E7A
S11322200093FBD1002303604B680093009B5B1E6B
S11322300093FBD1012303604B680093009B5B1E5A
S11322400093FBD1836003604B680093009B5B1E8B
S11322500093FBD1012303604B680093009B5B1E3A
S11322600093FBD1012343600B7A93B100240460F3
S11322705B1E4C680094009C641E0094FBD10124F6
S113228004604C680094009C641E0094FBD1002BF5
S1132290ECD1104601B0BDE8F08170B4D24881B0F1
S11322A00121816000210160D5494A680092009AA9
S11322B0521E0092FBD1012202604A680092009AE9
S11322C0521E0092FBD1826002604A680092009A1A
S11322D0521E0092FBD1012202604A680092009AC9
S11322E0521E0092FBD102604A680092009A521E6C
S11322F00092FBD1012202604A680092009A521EA9
S11323000092FBD1CA7D8AB1002303604B6800931D
S1132310009B5B1E0093FBD1012303604B68009379
S1132320009B5B1E0093FBD1521EEDD100221F24A3
S1132330AE4B002505604D680095009D6D1E00950F
S1132340FBD11D68012D18BF0025012606604E68CB
S11323500096009E761E0096FBD142EAC572520892
S1132360641EE6D101248460002404604C68009457
S1132370009C641E0094FBD11B68012B08BF42F033
S11323800042012303604B680093009B5B1E009393
S1132390FBD103604B680093009B5B1E0093FBD151
S11323A0012303604B680093009B5B1E0093FBD1E9
S11323B0836003604B680093009B5B1E0093FBD11A
S11323C001230360486800900098401E0090FBD1F0
S11323D001B070BC1046704730B40246824881B0E8
S11323E0012181600021016085494B680093009BB5
S11323F05B1E0093FBD1012303604B680093009B99
S11324005B1E0093FBD1836003604B680093009BC9
S11324105B1E0093FBD1012303604B680093009B78
S11324205B1E0093FBD103604B680093009B5B1E13
S11324300093FBD1012303604B680093009B5B1E58
S11324400093FBD1CB7D93B11C46002505604D68FC
S11324500095009D6D1E0095FBD1012505604D681A
S11324600095009D6D1E0095FBD1641EEDD10024E6
S1132470446004604C680094009C641E0094FBD18A
S1132480012404604C680094009C641E0094FBD1F9
S113249004604C680094009C641E0094FBD10124E9
S11324A004604C680094009C641E0094FBD104609A
S11324B04C680094009C641E0094FBD101240460C9
S11324C04C680094009C641E0094FBD11F2442605D
S11324D0002505604D680095009D6D1E0095FBD19B
S11324E0012505604D680095009D6D1E0095FBD18A
S11324F05208641EEBD18C7DE31A5B1E36D0426019
S1132500002202604A680092009A521E0092FBD197
S1132510012202604A680092009A521E0092FBD186
S11325205B1E10D002604A680092009A521E00920C
S1132530FBD1012202604A680092009A521E009266
S1132540FBD15B1EEED101228260002202604A6848
S11325500092009A521E0092FBD1012202604A6846
S11325600092009A521E0092FBD111E00123836075
S11325704260002202604A680092009A521E009251
S1132580FBD103604A680092009A521E0092FBD16C
S1132590002202604A680092009A521E0092FBD107
S11325A0012202604A680092009A521E0092FBD1F6
S11325B0826002604A680092009A521E0092FBD127
S11325C001220260496800910099491E0091FBD1E3
S11325D0426001B030BC704709494978002918BFEE
S11325E0FFF7B3B9FFF778BBA8816642B4616642CE
S11325F0034A5278002A18BFFFF752BA78E4000061
S11326006018002062B38B0708D0521E11F8013BFA
S113261000F8013B00F024808B07F6D1830740F0DB
S1132620208000BF103A07D330B4B1E83810103A14
S1132630A0E83810F9D230BC530724BFB1E8081021
S1132640A0E8081044BF51F8043B40F8043BD2070B
S113265024BF31F8022B20F8022B44BF0B780370FF
S11326607047083A07D3B1E80810083A40F8043B29
S113267040F804CBF7D25307E4E750F8041B61B1E8
S113268050F8042BD30744BFA9F101039A1800237F
S113269042F8043B091FFAD1EFE770479249012041
S11326A0087070479149002008608F49087070478E
S11326B08D4940B14A78824202D08D4800688870C2
S11326C0012048707047487810B18878884A1060B3
S11326D000204870704700002DE9F04F81B00020C1
S11326E0009083468349012008604FF6FC718248BC
S11326F0008F084080490887FEF7ABFC00F082FA9F
S113270000F008FC0022DFF8F4810321404600F0C9
S113271051FE7B4D286F08B901F0EEFC794EDFF8CD
S1132720E8A101207061CAF800B03220FDF7E8FC8E
S1132730C6F814B000220121404600F03BFE64209C
S1132740FDF7DEFC5A460321404600F033FE6420C8
S1132750FDF7D6FC6D4CDFF8B891634F04E000BF81
S113276001F0E1FD00F03CF9B868401C9621B0FB93
S1132770F1F19622B86002FB110181B93A79F96846
S1132780002A14BF491C491EF960F9680A2908BFC8
S1132790012103D0B1F5487F01D100213971797845
S11327A0D9B93978B1B94FF47A71B0FBF1F14FF47A
S11327B07A7202FB1100D9F80010C90703D510B9C9
S11327C00121CAF8C810F968884206D10020CAF865
S11327D0C80002E00120CAF8CC002868002804BF21
S11327E0F87800280DD100F0B3FADAF8CC0001280B
S11327F003D10220F870002001E00120F870CAF82B
S1132800CC00286801280CD1F87850B1F878022857
S11328100CBF01200020CAF8CC000020F87000F0A2
S1132820AAFA00F0F7FB0098401C0090B8F83C00AE
S11328304005BBEB505F07D0B8F83C004FEA405B63
S113284000204FEA5B5B0090404602F0FBFB03284C
S113285003D100982F49884282D3002060607060C1
S1132860E060F060A060B0602061306120603060A2
S113287060617061D9F80000C0075CBF002000905F
S1132880D9F80000C0070ED50098234988420AD21F
S1132890404602F0D7FB03287FF466AF00981D4939
S11328A08842FFF461AF14491C4808601C491C4865
S11328B0006820F0040008600020CAF8C800CAF8C4
S11328C0CC00387060607060E060F060A060B06060
S11328D0206130612060306060617061CAF8CC00B2
S11328E072B630BF62B63FE7981300208482664216
S11328F0808266422822664208000140002104408A
S1132900B8616642A4416642B8816642A401664247
S113291018330340A1860100819698001000CC1A58
S113292010ED00E081B0DFF8701501E00099491E58
S11329300091DFF8681591F8292E002A1CBF009A2F
S1132940002AF3D100684EF66022904238BF4FF45B
S1132950807207D3DFF84825904234BF40F2011259
S11329604FF49662C1F8442E0023DFF838255370E3
S11329704FF0000C80235370002381F8293E01F6A8
S11329807013C1F8203E0023C1F8243EDFF8183547
S1132990C3F8B034C3F8B4C401F67013C1F8303EC0
S11329A00121117082F805C082F804C0DFF8FC141C
S11329B0B1FBF0F0401E9081507840F0130050704D
S11329C001B07047DFF8E814012818BF0020086040
S11329D07047DFF8E014012818BF00200860704732
S11329E010B582B072B6DFF8B444D4F84C0E401C73
S11329F0C4F84C0E0FF2045000680090DFF8B804DD
S1132A0002F020FB032827D1DFF8B0040168012974
S1132A1018BF0021BDF800204FF6FE731A40114381
S1132A20ADF800100068012818BF0020BDF80010A0
S1132A304FF6FD72114041EA4000ADF8000004F683
S1132A40486002F09BFDBDF80000B4F8481E8842BF
S1132A501CBF00A802F065FDD4F8380E20B1D4F8EC
S1132A60380E401EC4F8380ED4F83C0E20B1D4F809
S1132A703C0E401EC4F83C0ED4F8400E18B301209E
S1132A80FFF716FE42F21071D4F8400E401EC4F84F
S1132A90400E42F21072D4F84C0EB0FBF1F102FB7E
S1132AA0110041F28831884206D1DFF8140401682C
S1132AB0491E8941C90F0160D4F8400E0A283CBF61
S1132AC00020FFF7F5FDD4F8380EF0B96420C4F8FF
S1132AD0380ED4F8300ED0F8B414B1B194F8281EDE
S1132AE099B904F51761884208BFDFF8BC13C4F82C
S1132AF0301EC1F8B0140022C1F8B424012184F8B6
S1132B00281ED0F8B41402F07AFDD4F83C0EE8B9CB
S1132B106420C4F83C0ED4F82C0ED0F8B414A9B137
S1132B2094F8291E91B9012184F8291EC4F8340EA1
S1132B30A0420CBF04F2B8402046C4F82C0EC0F8E2
S1132B40B0040021C0F8B41400F0DAF862B602B0A0
S1132B5010BDD249002081F8280E704770B582B0AC
S1132B600646D848CD4D00900C46D5F82C0ED5F825
S1132B70442ED0F8B4146118803A914222D302E072
S1132B800099491E009195F8291E00291CBF00993F
S1132B900029F5D1009999B30021C5F83C1E012103
S1132BA085F8291EC5F8340EA8420CBF05F2B840BA
S1132BB02846C5F82C0EC0F8B0040021C0F8B4149F
S1132BC000F09EF82246D5F82C0ED0F8B004314619
S1132BD0FFF718FDD5F82C0ED0F8B0146118C0F822
S1132BE0B014D0F8B4146118C0F8B4146018D5F84F
S1132BF0441E803988422CBF00206420C5F83C0E56
S1132C0002B070BD00B5B04881B00021016000225F
S1132C10A7490A600123AD4A13600023C360CB6057
S1132C200121D16003610123A9490B6000231361D1
S1132C3003610120086013619848C0F8B00400F2F1
S1132C40B841C0F86819C0F82C0E00F67011C0F82D
S1132C50201EC0F8B434C0F86C39C0F8243E924940
S1132C60C1F8B014C1F8B43400F67011C0F8301EC5
S1132C70984802F003FC984802F005FC974802F0DB
S1132C8007FC974802F0F1FB964802F0F2FB9648E5
S1132C90016841F006010160D0F8FC1421F006013E
S1132CA0C0F8FC14D0F8181621F47C41C0F81816AA
S1132CB0D0F8181641F42051C0F81816802179482C
S1132CC04170012101700021417101714FF4AD7116
S1132CD08181417841F0130141704FF400718348C0
S1132CE0C0F880110160202180F809134FF480613D
S1132CF0C0F880110160202180F80A1301B000BDE2
S1132D0081B07B48009072B66448D0F8340EC0F8A5
S1132D10B00402E00099491E009176490A799207AD
S1132D2002D4009A002AF5D1009A7AB10278A1F867
S1132D300720421CC0F8B024D0F8B424521EC0F8B6
S1132D40B424087840F00800087062B601B07047F7
S1132D5066484FF40071C0F88011C0F8801020213B
S1132D6080F809134FF48061C0F8801101602021BC
S1132D7080F80A137047604881B001783822114204
S1132D8003D0017841F0800101700178490744BF04
S1132D90B0F803008DF8000054484FF40071C0F8F7
S1132DA080110160202180F809134FF48061C0F87C
S1132DB080110160202180F80A1301B0704781B0AE
S1132DC000208DF800004CF250313448C0F8401E09
S1132DD0382349490A781A4203D00A7842F080021B
S1132DE00A700A78520724D5D0F8303ED0F8442E21
S1132DF0D3F8B4C4B1F8031094450ED2D3F8B0C4D8
S1132E008CF80010D3F8B014491CC3F8B014D3F8EC
S1132E10B414491CC3F8B41401E08DF80010A2F1F5
S1132E200A01D3F8B424914234BF00216421C0F8CC
S1132E30381E01B0704781B000208DF800004CF2BC
S1132E4050311648C0F8401E2A490A79920720D505
S1132E5072B60A7902F001020A7162B6D0F8342E11
S1132E60D2F8B43453B972B60A7802F0F7020A7091
S1132E70002180F8291E62B601B07047D2F8B00470
S1132E8010F801CBA1F807C0C2F8B004581EC2F86C
S1132E90B40401B070470000A08601008400002043
S1132EA020A1070000810340A8130020005A6202F9
S1132EB0808066428C8066420021044090606642B5
S1132EC0808266428096980000A0664280406642F6
S1132ED0902066425D2B0000532B00002529000042
S1132EE0C5290000D32900000430034000E100E0BC
S1132EF000E1F50501810340058103400000000065
S1132F0000B581B001F0AEF901B05DF804EB5C48A6
S1132F1002F014BAF0B59BB000F0C9F954240025AE
S1132F200022214606A802F097FB18262A463146BD
S1132F3000A802F091FB01208DF8180000AA0FF2FE
S1132F4064104F4F009006A90FF26C1001900FF21D
S1132F50D41002900FF2E410039005208DF81000B5
S1132F6001208DF819000FF23100179045480590A3
S1132F70384602F0EDF806A9384600F0F3F82A4680
S1132F80214606A802F068FB2A46314600A802F052
S1132F9063FB1BB0F0BD0000401E072816D8DFE815
S1132FA000F004171B1F242A2F343749012008601E
S1132FB00020364908600120354908602021354841
S1132FC0C0F880110160102180F8051300207047BB
S1132FD0002031490860F9E701202F490860F5E72E
S1132FE000202D49C1F80001F0E72B48D0F88000FB
S1132FF00128ECD0EAE728490020C1F8BC01E5E744
S113300001202549C1F8BC01E0E72448006800F02C
S11330100100704700220021194800F0CBB910B517
S11330201F4C2068012811D10020C4F880000146FB
S11330300022134800F0BEF940B91848006800F0B7
S11330400100401E8041C00FC4F83C0110BD10B502
S1133050134C2068012811D10020C4F880000146D7
S11330600022074800F0A6F940B90C48006800F0B7
S11330700100401E8041C00FC4F83C0110BD000097
S113308000210440012F0000000366420043664211
S11330907CC3664200E100E03C0060421833034018
S11330A0BC00604212010101000000406A1A0020C5
S11330B0600101020001000009026B00030100002D
S11330C01F0904000002030000040921110100018A
S11330D0221D00070581034000010705020340008B
S11330E001080B01020202010509040100010202A8
S11330F00100052400011004240200052406010235
S11331000524010102070583034000FF09040200AE
S1133110020A0000000705040240000007058502BA
S113312040000000585900001D000000000000008D
S1133130000000000000000000000000F85800003B
S113314000000000045900000000000024590000A1
S11331500000000028590000000000003C59000055
S113316000000000F0B581B005460C460020009038
S11331704FF4C271DFF8207B02E0009A521C0092E7
S1133180009A72BB009A01FB027252689542F4D114
S1133190009801FB007000F10806307938B94FF44B
S11331A0C071304602F076FA284600F0ECFA38781E
S11331B008B900F07CF86178DFF8C80A012913D156
S11331C0854225D1DFF8C00A0421C0F880110160CE
S11331D0302180F81E130821C0F8801101603021CD
S11331E014E0072001B0F0BD854211D1DFF8980A40
S11331F00421C0F88011C0F88010F02180F81E135B
S11332000821C0F88011C0F88010F02180F81F1345
S11332102078012808BFF0702078022804BF01201C
S1133220B0702078032802D10120F070B07060687B
S1133230C6F85001A068C6F854012069F060E0683F
S1133240B060206AF061606C3064A16C7164E06C01
S1133250B064206DF064E06BB063206CF063080030
S113326004D001208847716C03208847B16C0800A2
S113327004D001208847B16C03208847F16C080012
S11332801CBF01208847316C08000DD001208847FD
S1133290316C08208847002814BF06200720316CB1
S11332A08847316C03208847002001B0F0BDB0B5D9
S11332B082B0002000904FF4C2744FF4C075DFF860
S11332C0D8790AE0009804FB0070002229460830EF
S11332D002F0E4F90098401C009000980028F1D016
S11332E0DFF8A00900F04FFADFF8B01901200860F8
S11332F0DFF8AC190860DFF8AC19086002F002FAD4
S11333000120387002B00020B0BD70B481B0002438
S113331000944FF4C27402E0009D6D1C0095009D62
S113332005BB009EDFF8705904FB06567668B04270
S1133330F2D1009804FB005001F01F04083004EBA4
S1133340C40500EB850000F17804D005A268C00D27
S113335010802170608001F080000128ACBF012042
S1133360002003E001B070BC07207047A2681588F4
S113337045EA00301080A068028842EA43320280A5
S11333806068400100F1844204983832012806D173
S113339001F08000411E8941C90F116001E0002045
S11333A01060A068018841F40041018001B070BC44
S11333B000207047F0B581B0044615460020009007
S11333C04FF4C272DFF8D06802E0009B5B1C0093EC
S11333D0009B5BBB009B02FB03635B689C42F4D1D4
S11333E0009802FB006000F10807D6F8880100BBD2
S11333F0032975D8DFE801F00237485B396C08000F
S11334006ED008208847012878781AD1002804BF94
S1133410F878012864D1204600F065F8401E804108
S1133420C00F78707878012857D159E0072001B08F
S1133430F0BDD6F88801401EC6F8880101B00A2004
S1133440F0BD012804BFF878012849D1204600F0D6
S113345027F9401E8041C043C00F7870C6F88851D8
S11334600A2001B0F0BD7878002804BFF87801285C
S113347036D1204600F037F8401E8041C00F7870E6
S11334807878012829D12BE07878012804BFF878CE
S1133490012825D1204600F003F9401E8041C04395
S11334A0C00F7870C6F888510A2001B0F0BD787852
S11334B001280CD1F87801280FD1204600F0F0F84B
S11334C0401E8041C043C00F7870C6F88851787898
S11334D0002804BF3878002803D00A2001B0F0BDCA
S11334E0002001B0F0BD30B597B004460020009034
S11334F04FF4C27102E0009A521C0092009A9AB9E9
S1133500009BDFF8942701FB03235B689C42F2D104
S1133510009801FB002000F10805D5F850010028AF
S11335201CBFA86B002802D1072017B030BDA96CBE
S113353008001CBF03208847696C08001CBF0320D7
S11335408847204600F01FF9204600F0A9F8208C97
S113355040F0800020844FF6EF71A02020840020EA
S11335602080208840F002002080208C08402084A5
S11335704FF6BF71208C084020844FF6FD71208CDB
S113358008402084208C40F008002084D5F85401A1
S1133590C079C028208C0EBF40F001004FF6FE71A8
S11335A0084020844FF67F71D5F85001C079A0847B
S11335B0208C0840208401A9AA6B204690470598D6
S11335C0E8600498A86095F850000090009868B3EB
S11335D0009800EBC00105EB8100406B01884904B1
S11335E0490C01800098401E00900098F0B10098AA
S11335F000EBC00105EB8100406B01884904490CD4
S113360001800098401E0090009878B1009800EB6B
S1133610C00105EB8100406B01884904490C01801D
S11336200098401E009000980028D1D194F84100E1
S113363040F0200084F841004BF6FF7194F84100FB
S113364000F0EF0084F8410094F8410040F00800D5
S113365084F8410094F8410040F0040084F84100EB
S113366094F8410040F0010084F8410094F84100CE
S113367000F0FD0084F84100B4F844000840A4F8C8
S113368044004FF6DF71B4F8480040F48040A4F8D9
S11336904800208C0840208417B0002030BD000072
S11336A030B581B00446002000904FF4C27102E0AE
S11336B0009A521C0092009A002A61D1009BDFF804
S11336C0D82501FB03235B689C42F1D1009801FBE0
S11336D000200830002190F850204AB301EBC102C9
S11336E000EB8202491C536B1D886D046D0C1D8018
S11336F04BF6FF75526B13882B401380C9B290F8B8
S11337005020914214DA01EBC10200EB8202491C01
S1133710536B1D886D046D0C1D804BF6FF75526B49
S113372013882B401380C9B290F850209142D5DB06
S113373094F8411001F0FD0184F841104BF6FF723A
S1133740218C41F020012184218C41F080012184CD
S1133750002184F84110B4F844101140A4F8441036
S1133760B4F848101140A4F84810816808001CBF40
S113377020468847204600F00BF9002001B030BDF8
S1133780072001B030BD81B0002100914FF4C27216
S113379002E0009B5B1C0093009B002B40F0F58033
S11337A0DDF800C0DFF8F03402FB0C3CDCF804C0A8
S11337B06045EED1009902FB0131083101220A7102
S11337C0072281F8502000224A71C1F85C21A1F837
S11337D05821C1F86421A1F86021C1F86C21A1F835
S11337E06821C1F87421A1F87021C1F87C21A1F8E5
S11337F07821A022028400228284028582850286A6
S11338008286028780F8402080F84120A0F8442076
S1133810A0F84820A0F84C20A0F85020A0F854208C
S1133820A0F85820A0F85C20028002714271102296
S113383002724274802281F854204022A1F856205A
S113384000F144028A6500F12402CA6500F16002B5
S11338500A6600228A6681F87020486781F8782019
S11338604022A1F87A2000F14802CA6700F124023C
S1133870C1F8802000F16002C1F884200022C1F860
S11338808C2081F89420C1F89800012281F89C20B2
S11338900022A1F89E2000F14C02C1F8A02000F102
S11338A02802C1F8A42000F16402C1F8A820002273
S11338B0C1F8B02081F8B820C1F8BC00022281F818
S11338C0C0200022A1F8C22000F15002C1F8C42097
S11338D000F12C02C1F8C82000F16802C1F8CC2024
S11338E00022C1F8D42081F8DC20C1F8E0000322D2
S11338F081F8E4200022A1F8E62000F15402C1F886
S1133900E82000F13002C1F8EC2000F16C02C1F8AB
S1133910F0200022C1F8F82081F80021C1F8040148
S1133920042281F808210022A1F80A2100F158029A
S1133930C1F80C2100F13402C1F8102100F1700229
S1133940C1F814210022C1F81C2181F82421C1F8F6
S11339502801052281F82C210022A1F82E2100F152
S11339605C02C1F8302100F13802C1F8342100F1C1
S11339707402C1F838210022C1F8402181F848219D
S1133980C1F84C0101B000207047072001B0704716
S1133990A02101840021818401858185018681869D
S11339A0018780F8401080F84110A0F84410A0F876
S11339B04810A0F84C10A0F85010A0F85410A0F82B
S11339C05810A0F85C10018001714171102101723E
S11339D041740020704781B0002200924FF4C272FB
S11339E002E0009B5B1C0093009B4BBBDDF800C016
S11339F0DFF8B83302FB0C3CDCF804C06045F0D1BE
S1133A00009802FB003008301F23194206D101F050
S1133A108001012911DB543001B0704790F8503017
S1133A2001F01F029B1E93420ADB02EBC20300EB70
S1133A30830090F878208A4202D1783001B0704730
S1133A40002001B0704770B4002403B11C8020B181
S1133A50002918BF002B03D112B170BC0420704799
S1133A6045682D886D0558BF0A2042D54588954282
S1133A7038BF4288D50758BF01249AB30025521E87
S1133A801D80012A27DBC66831F8025B35801D885A
S1133A90AD1C1D80ADB295421DDAC66831F8025BDB
S1133AA035801D88AD1C1D80ADB2954213DAC66801
S1133AB031F8025B35801D88AD1C1D80ADB2954286
S1133AC009DAC66831F8025B35801D88AD1C1D809B
S1133AD0ADB29542D7DB2CB91A88521C1A80C26841
S1133AE00978117000214068DFF8C42240011150A8
S1133AF0002070BC7047F0B481B00024ADF80240DF
S1133B004FF6FF75002A14BF14800DF102021688C7
S1133B1006F44047B7F5004F04BFB505AD0D18B91D
S1133B2001B0F0BC04207047466837887F0558BF51
S1133B300A202AD5368806F07F071780FE0758BF6B
S1133B400124D7B100267F1E012F0DDBC7683F88F3
S1133B50AE42B4BF21F8027BADF800701788B61CE2
S1133B60B6B27F1EBE42F1DB3CB9C768AE42B9BFF4
S1133B703A780A703978ADF800102BB14068DFF854
S1133B803022400100211150002001B0F0BC7047E8
S1133B9008B90420704740680188490501D40A2007
S1133BA070474001DFF808220021115000207047BF
S1133BB081B0018CADF80210BDF80210C1F34011C0
S1133BC011B1002001B0704790F841008DF8000059
S1133BD09DF80000C0F3400001B0704730B583B0D9
S1133BE00022012101924FF4C27302E0019C641C83
S1133BF00194019C002C43D1019D6C4C03FB0545B1
S1133C006D68A842F2D1019A03FB024202F1080452
S1133C1000220BE09DF8002004EBC202B2F85831F8
S1133C205B1EA2F858319DF80020521C8DF800202C
S1133C309DF80020052A20DA9DF8002004EBC2023A
S1133C40D2F85C21002AEED09DF8002004EBC202D9
S1133C500021B2F85821002ADCD19DF8001004EBB1
S1133C60C101D1F85C1188479DF8001004EBC10133
S1133C700020C1F85C0103B030BD09B100206071BF
S1133C8003B030BD0021044004E100E04A49494842
S1133C900AE04949474891E00C11002010B06642FF
S1133CA024C066420403664230B5044681B00D4622
S1133CB0022072E0009800EBC00105EB8100806DEA
S1133CC00088400567D5009800EBC00105EB810032
S1133CD0806D008840045ED5009800EBC00105EBC0
S1133CE0810090F87100012843D1009901EBC102D1
S1133CF005EB8201002081F87100009800EBC001FF
S1133D0005EB810090F87100012832D1009901EB94
S1133D10C10205EB8201002081F87100009800EBDC
S1133D20C00105EB810090F87100012821D10099B0
S1133D3001EBC10205EB8201002081F871000098BB
S1133D4000EBC00105EB810090F87100012810D14F
S1133D50009901EBC10205EB8201002081F871009A
S1133D60009800EBC00105EB810090F87100012878
S1133D70BBD0009800EBC00105EB8100806E50B110
S1133D800098C0B200EBC00105EB810202F15401BE
S1133D90926E204690470098401C0090009895F839
S1133DA05010884286D301B030BD00000C110020B1
S1133DB028000042002104401411002030B50D46B3
S1133DC083B004466878002800F00F8194F840001E
S1133DD08DF800009DF80000C0070AD594F8400053
S1133DE000F0FE0084F84000A96808001CBF2046CB
S1133DF08847A08CADF80200BDF80200C0F3402053
S1133E0020B1A08C4FF6FF510840A08494F84000E4
S1133E108DF800009DF80000C0F3400070B1B4F8C4
S1133E204800ADF80200BDF80200C0F3803028B9A4
S1133E30B4F8480040F48040A4F84800B4F84800BE
S1133E40ADF80200BDF80200C0F3802090B3B4F8CE
S1133E504800ADF80200BDF80200C0F3803048B35A
S1133E6094F840008DF800009DF80000C0F3400075
S1133E7058B194F8400000F0FD0084F84000E9686F
S1133E80080017D02046884714E0B4F84800D5F855
S1133E908C0030B1D5F88C2005F17801204690478C
S1133EA008E0B4F84800B4F848004FF6FF31084081
S1133EB0A4F84800B4F84400ADF80200BDF80200CC
S1133EC0C0F3802088B1B4F84400ADF80200BDF816
S1133ED00200C0F3803000281CBFA86E002804D064
S1133EE0AA6E05F154012046904794F840008DF8DD
S1133EF000009DF80000C0F3800050B194F8400029
S1133F0000F0FB0084F84000696908001CBF2046EB
S1133F10884794F840008DF800009DF80000C0F335
S1133F20C000A0B394F8400000F0F70084F840000B
S1133F3095F8500015E0019800EBC00105EB8100F5
S1133F40406B018841F400410180019800EBC001FD
S1133F5005EB8100406B01884904490C01800198FC
S1133F60401E019001980028E5D1B4F844004BF6B6
S1133F70FF710840A4F84400B4F8480040F48040BD
S1133F80A4F84800A96908001CBF2046884794F893
S1133F9040008DF800009DF80000C0F3001080B1CF
S1133FA094F8400000F0EF0084F84000687901289C
S1133FB004BF2046FFF712FEE96908001CBF204633
S1133FC0884794F840008DF800009DF80000C0F385
S1133FD0401050B194F8400000F0DF0084F8400035
S1133FE0296908001CBF204688472878002800F06B
S1133FF0808020798DF800009DF80000C0F3C00097
S113400040B1207900F0F7002071A96A08001CBFB4
S11340102046884720798DF800009DF80000C007ED
S11340200ED5207900F0FE0020716879012804BFC4
S11340302046FFF7D3FDE96908001CBF20468847E6
S113404020798DF800009DF80000C0F3400040B1D5
S1134050207900F0FD002071296A08001CBF204669
S1134060884720798DF800009DF80000C0F3800097
S113407048B1696A080002D02046884703E02079E5
S113408000F0FB00207120798DF800009DF80000FD
S1134090C0F3001048B1E96A080002D020468847FE
S11340A003E0207900F0EF00207120798DF8000002
S11340B09DF80000C0F3401040B1207900F0DF000B
S11340C02071296B08001CBF2046884720798DF891
S11340D000009DF80000C0090BD0207900F07F009B
S11340E02071696B080004D0204603B0BDE830405D
S11340F0084703B030BD0000164901200860164887
S1134100016821F440610160016841F400610160CB
S113411000211248017080F800124FF40161A0F8E8
S11341204B11002180F85011202180F84F110921F2
S1134130A0F83F110421A0F84311B0F84B1141F04D
S11341400201A0F84B11B0F84B1141F00101A0F8A5
S11341504B117047BC0166421436034001510240C2
S113416010B5A64C00F06EFF032837D1FCF771FFA1
S11341700020E0700120207100202070A060E06029
S1134180012060700020A0702061606101206071D6
S11341909B4C2060FEF782FA3220FBF7B1FF01202E
S11341A060603220FBF7ACFF00202060FEF77AFA53
S11341B0002194484160002293494A60C260CA6069
S11341C082608A6002610A6102600A6042614A6137
S11341D03220FBF795FF0020606010BD0020607165
S11341E010BD70B582B00446FF200D468DF8000066
S11341F0824E2878000603D50120307102B070BDCC
S1134200307E072804D181490120087002B070BDB6
S1134210307818B1B068F168884221D0B068296953
S1134220096806EB801040228430FEF7EBF9012088
S113423000904023286902682946204600F099F935
S1134240B068401CB060B068402804BF0020B06073
S1134250B068F168884204BF012030700120F0701A
S113426002B070BDF0B58BB00446644D00200290DE
S11342708DF804002C66A865E8652870A860E860DD
S113428001AB0120687002AA0020A870286168614F
S113429006A9FF208DF8180003208DF819000020CE
S11342A0ADF81A0007900890099059480A902046E2
S11342B000F028FE0027574E9DF80400874230DAAC
S11342C00298385CC7190298FFB23818417805295A
S11342D0F2D180788DF80C0004969DF80C0000064D
S11342E011D405F17400059003A9204600F08CFF59
S11342F001210091E8650146402305F1180220469A
S113430000F037F907E005F16400059003A92046A1
S113431000F07AFFA865A86D00281CBFE86D00288E
S1134320CAD00BB0F0BD30B5344C81B0E068A168A0
S1134330884204BF207800285DD0206941F28405BA
S113434004EB80102918E06804EB80108430FCF73B
S1134350F5FB206904EB80102918E06804EB801059
S113436084300020C046E068401C402808BF00207C
S1134370E060E068A168884204BF00202070607893
S113438068B300206070606904EB80102A186079BB
S113439000281CBF207900282DD000202071012086
S11343A000904023A16D206E00F036F96069216908
S11343B0884204BFA078002803D10120607001B0B6
S11343C030BD6069401C60616069402804BF002002
S11343D060616069216988420DD100200AE020698A
S11343E0401C402808BF0020206120696169884280
S11343F001D10120A07001B030BD000000E0FF1F1A
S113440080826642A4016642A4416642801800206C
S113441061410000E341000070B582B00446002011
S11344200D46ADF80000286941680068081A697FE4
S1134430012913D100216977697F012901BF002176
S11344406977697F012909D100216977697F012989
S113445001BF00216977697F0129EBD02A69696866
S1134460D268DFF87C6D06EB411190421AD300202C
S11344700860287F70B168882969CA68B2FBF0F3C4
S113448000FB132030B92AB1096800AB002228468A
S1134490FFF7D9FAA869D0B1AA69294620469047FE
S11344A002B070BD00220A6000AB2969CA6849687D
S11344B0121A92B22846FFF7C6FA2869BDF80020FE
S11344C0416851184160012069684901705002B087
S11344D070BD70B582B004460D460020ADF80000F2
S11344E06968DFF8FC6C490170502869816842688A
S11344F00068891A40186988884205D28005800DB1
S113450040F40040ADF8000000232869416800AA87
S11345102846FFF7F0FA6968DFF8C82C4901002043
S113452050502869BDF80020C1685118C16028693D
S1134530BDF800204168511841602869416802684B
S11345408068891A814204D2BDF8000069888842D3
S113455009D200206861A86948B1AA6929462046A1
S1134560904702B070BD696849010120705002B0E3
S113457070BD10B582B000200C46ADF80000206973
S113458010B9042002B010BD0260206942602069A5
S1134590836000202169C860049818B1022838D0CB
S11345A02DD329E020694168826800680B1A934280
S11345B022D2511A40186188884205D28005800DA4
S11345C040F40040ADF8000001232069416800AACE
S11345D02046FFF790FA2069BDF80020C168511801
S11345E0C1602069BDF80020416851184160BDF8E0
S11345F0000061888842D5D2002002B010BDDFF8E7
S1134600E80BDFF8DC2B6061012061684901505040
S1134610F2E7012002B010BD10B582B000200C46B4
S1134620ADF80000114620691A4610B9042002B002
S113463010BD637F012B08BF0A204CD001602069A4
S11346404160206982602069C260049828B1022810
S11346505AD042D3012002B010BD012060770DE092
S1134660121A8A18014600AB92B22046FFF7EBF902
S11346702069BDF800204168511841602169CA6869
S113468048680968431A9342EAD3207F58B1608886
S1134690B2FBF0F300FB132028B922B100AB0022D7
S11346A02046FFF7D0F9607F012813D100206077FE
S11346B0607F012801BF00206077607F012809D155
S11346C000206077607F012801BF00206077607F51
S11346D00128EBD0002002B010BD0120607700ABB0
S11346E0DFF8080B606192B22046FFF7ACF920694D
S11346F0BDF8002041685118416001206168DFF86D
S1134700E02A49015050E5E7607F012813D10020D9
S11347106077607F012801BF00206077607F0128F7
S113472009D100206077607F012801BF00206077F5
S1134730607F0128EBD00020607702B0012010BD1B
S1134740F0B583B005460C4600200090E821DFF860
S1134750A06A02E0009A521C0092009A62B9009A80
S113476001FB0262D2F810219542F3D1009801FBBB
S1134770006000F58A7700E000270020C7F8E00019
S1134780002301AA06F5FC712046FFF7B4F9607F07
S1134790012813D100206077607F012801BF002029
S11347A06077607F012809D100206077607F01284D
S11347B001BF00206077607F0128EBD0216906F5F6
S11347C0FC7008602169BDF80400C860B869FFF78F
S11347D0DFF90028FAD1BDF8040038B997F82000B1
S11347E0042812D1002087F820000EE0D7F8DC203E
S11347F0100006D02146284690470020C7F8DC0068
S113480003E006F5FC70C7F8E000002021690860A9
S11348102169C86003B0F0BD81B000220092E82293
S113482002E0009B5B1C0093009B7BB9DDF800C099
S1134830DFF8BC3902FB0C3CDCF810C16045F0D158
S1134840009802FB003000F59A7000E0202004225A
S11348500270487F012813D100204877487F01283F
S113486001BF00204877487F012809D100204877FC
S1134870487F012801BF00204877487F0128EBD0FA
S113488001B0704730B581B0044600200090E821A3
S113489002E0009A521C0092009A72B9009BDFF861
S11348A0502901FB0323D3F810319C42F1D1009825
S11348B001FB002000F58A7500E000252046FFF783
S11348C077F900280CBF012003206870D5F8841004
S11348D008001CBF20468847D5F8981008001CBF64
S11348E020468847D5F8AC1008001CBF20468847EE
S11348F0D5F8C01008001CBF20468847D5F8D4104E
S1134900080004D0204601B0BDE83040084701B09B
S113491030BD0000F0B50446DFF8D46806F10800A5
S113492083B00021002206C00191E82102E0019A2F
S1134930521C0192019A62B9019A01FB0262D2F8F7
S113494010219442F3D1019801FB006000F58A75AF
S113495000E00025B4F848004BF6FF710840A4F8C5
S113496048000123A8690DF102023146FFF7C3F89C
S1134970012085F820000020C5F8E000F078B37825
S113498031787278377996F806C0317200027081F6
S11349901B18707972720002B0813F18F07973812C
S11349A00002F081B7816044F0815FEAD11C14BF3A
S11349B04FF0020C4FF0030C01F0600185F820C0A9
S11349C0202908BF0A2A32D1B4F844004FF6FF3137
S11349D00840A4F84400042085F82000E869407FDA
S11349E0012840F01682E96900204877E869417F90
S11349F0012940F00E8200214177E869417F0129B5
S1134A0040F0078200214177E869417F012940F0A5
S1134A10008200214177E869407F0128E3D0B4F89F
S1134A20480040F48040A4F8480003B0F0BD317A57
S1134A30490911F0030103D0012900F0BC81C8E148
S1134A40062A40F0C6811B04190E012908D0022948
S1134A5063D0032900F0C280222900F04C81B8E120
S1134A606968097880B2814238BF0846EA69DFF88C
S1134A708417916100226968EE69ADF800203269FB
S1134A80002A1CBF737F012B00F0A38111603269DF
S1134A905160316988603169C860012070770CE029
S1134AA0521A821800AB92B23046FEF7CCFF30693E
S1134AB0BDF800204168511841603069C2684168FE
S1134AC000680B1A9342EBD3317F61B17188B2FB5A
S1134AD0F1F301FB132131B92AB1014600AB0022E5
S1134AE03046FEF7B0FF707F012840F0728100204D
S1134AF07077707F012801BF00207077707F0128D4
S1134B0040F0678100207077707F012801BF00208A
S1134B107077707F0128EAD05BE1A9688A78C97848
S1134B2002EB012180B28142B8BF0846EA69DFF88E
S1134B30C416916180B2A968EE690022ADF8002024
S1134B403269002A1CBF737F012B00F0428111607F
S1134B5032695160316988603169C86001207077B9
S1134B600CE0521A821800AB92B23046FEF76BFF8B
S1134B703069BDF800204168511841603069C2684D
S1134B80416800680B1A9342EBD3317F61B171889D
S1134B90B2FBF1F301FB132131B92AB1014600AB99
S1134BA000223046FEF74FFF707F012840F011814C
S1134BB000207077707F012801BF00207077707F1C
S1134BC0012840F0068100207077707F012801BF22
S1134BD000207077707F0128EAD0FAE0002030745A
S1134BE07089C1B241B90420307403207074092063
S1134BF0B0740420F07423E0C0B2297D81421FDB2D
S1134C00296951F83000D8B10220307406F212013B
S1134C1003207074002006E001F8012B401C0022E0
S1134C2001F8012BC0B22A69B37A02EBC30252F82D
S1134C30082C825C002AEFD1317C01EB40003074F7
S1134C40F089317C884238BF3074EF69307C0021B0
S1134C50ADF80010396900291CBF7A7F012A00F0E1
S1134C60B88006F110020A6006F110013A69516039
S1134C70396988603969C860012078770CE0521A74
S1134C80821800AB92B23846FEF7DDFE3869BDF8F3
S1134C9000204168511841603869C2684168006861
S1134CA00B1A9342EBD3397F61B17988B2FBF1F3EC
S1134CB001FB132131B92AB1014600AB0022384669
S1134CC0FEF7C1FE787F012840F0838000207877CA
S1134CD0787F012801BF00207877787F012878D178
S1134CE000207877787F012801BF00207877787FCB
S1134CF00128EBD06DE0EA6807F0030102EBC10282
S1134D0080B29288824238BF1046EB69DFF8E4240F
S1134D109A61EA6852F83110EE690022ADF8002079
S1134D203269002A1CBF737F012B52D01160326993
S1134D305160316988603169C860012070770CE086
S1134D40521A821800AB92B23046FEF77CFE3069EC
S1134D50BDF800204168511841603069C26841685B
S1134D6000680B1A9342EBD3317F61B17188B2FBB7
S1134D70F1F301FB132131B92AB1014600AB002242
S1134D803046FEF760FE707F012822D10020707744
S1134D90707F012801BF00207077707F012818D12F
S1134DA000207077707F012801BF00207077707F2A
S1134DB00128EBD00DE0BFB2052F0ADA07EB87001C
S1134DC005EB8000826F100003D006F10801204635
S1134DD09047042085F82000E869407F012818D115
S1134DE0E96900204877E869417F012911D1002150
S1134DF04177E869417F01290BD100214177E869B6
S1134E00417F012905D100214177E869407F0128CC
S1134E10E6D0B4F8480040F48040A4F8480003B059
S1134E20F0BD30B583B000230093E82302E0009C7A
S1134E30641C0094009C74B9009DDFF8B44303FB28
S1134E400545D5F81051A842F1D1009803FB004064
S1134E5000F5987000E01C200368DFF898439C611B
S1134E6000245C7704680020ADF804002069002861
S1134E701CBF637F012B1AD0016001AB2069416024
S1134E80206982602069C2600120607792B2D748AD
S1134E9060612046FEF7D7FD2069BDF80420416813
S1134EA05118416001206168CD4A4901505003B056
S1134EB030BD30B581B00A4600210091E82302E0FC
S1134EC0009C641C0094009C6CB9009DC84C03FBBE
S1134ED00545D5F81051A842F2D1009903FB0141D0
S1134EE001F58A7400E00024D4F8E01031B1A1691E
S1134EF090470020C4F8E00001B030BDC4F8DC20C5
S1134F0001B030BDF0B481B000240094E82402E084
S1134F10009D6D1C0095009D75B9009EB44D04FB69
S1134F200656D6F81061B042F2D1009804FB005046
S1134F3000F58A70002405E00020002402E0655D8D
S1134F402C19A4B28568AE78EF7806EB0726B44234
S1134F5074DA66197778042F02BF777991F801C063
S1134F606745ECD1B77991F802C0674502BFF7797C
S1134F7091F803C06745E2D10F78FF2F1CBF96F864
S1134F8002C06745DBD1166085686519AD7805EB0D
S1134F90850600EB86054E7885F875608568651989
S1134FA0AD7805EB850600EB86058E7885F876608E
S1134FB085686519AD7805EB850600EB8605CE7826
S1134FC085F8776085686519AD7805EB850600EB93
S1134FD086054E68AE6785686519AD7805EB85066C
S1134FE000EB86058E68EE6785686519AD7805EB7C
S1134FF0850600EB8605CE68C5F88060856809697A
S11350006519AD7805EB850600EB8605C5F88410B7
S113501081688D78CE7805EB0625AC4206DA655CAE
S11350202C19A4B265186D78042DF1D11068201ADA
S11350300818187001B0F0BC0020704701B0F0BC33
S11350400120704781B000210091E82102E0009A1C
S1135050521C0092009A7AB9009B654A01FB032313
S1135060D3F810319842F2D1009801FB002000F2ED
S11350701510007801B070470120007801B0704726
S1135080F0B581B004460D4600200090E82102E00E
S1135090009A521C0092009A6AB9009B544A01FB80
S11350A00323D3F810319C42F2D1009801FB002075
S11350B000F58A7600E00026B0688178C078002781
S11350C001EB002001281BDBB06838184178052962
S11350D00CD100210091C178427901F003030179D8
S11350E041EA022281782046FEF70FF9B068395C64
S11350F0CF198178C078BFB201EB00208742E3DB8F
S11351003D48286180213D48E8602046FEF763FC65
S1135110F06100212046FEF75EFCB06106F16402F6
S1135120F1690A6102613348486101200877B16975
S1135130334848610020C6F8E000D6F8D8100800CB
S113514004D0204601B0BDE8F040084701B0F0BDEE
S113515070B582B0044600200090E82302E0009D70
S11351606D1C0095009D6DB9009E214D03FB0656F4
S1135170D6F81061B442F2D1009803FB005000F558
S11351808A7500E00025087840F001000870106876
S11351904860506888601B48C86380211068686054
S11351A05068A8609068E860D0682861107C287511
S11351B05069C5F8D8002046FEF70DFCE8610021CF
S11351C02046FEF708FCA86105F16402E9690A615A
S11351D00261084A4A610A49416102B070BD000097
S11351E03800004228000042D34400001944000063
S11351F0D40E00201948000015490000854800001D
S1135200414700008150000010B50C462178FEF79C
S1135210E2FB61688161A168016110BD00B581B0E4
S1135220FFF710FF03280CBF01200020DFF818143B
S113523081F85F0091F85F0081F85C0001B000BD67
S11352402DE9F0410D4682B0804628690668C7689A
S11352502878DFF8F44300060DD594F8590040F09F
S1135260020084F85900D4F88800010062D002B02A
S1135270BDE8F041004794F8580040F0080084F875
S11352805800D4F88420100003D0394630469047A3
S113529047E094F85A0000281CBF94F85C000028EA
S11352A009D094F85B0030B900903B46616FA06E62
S11352B03246FFF7B1F900202FE000BF94F85E00FA
S11352C028B13178814204BF012184F85D10616EF8
S11352D0402906D2616E4A1C6266091916F8012B30
S11352E00A7600281CBF94F85A00002813D094F8BA
S11352F05C0000281CBF94F85B0000280BD094F8D5
S11353005D0040B10020009004F11802636E616FEB
S1135310A06EFFF781F90198401C01900198B842F2
S1135320CCD328690121009183680268294640464C
S1135330FFF71FF902B0BDE8F08100002DE9F0434A
S11353408BB08146002002908DF80400FF260220D5
S11353508DF819008DF81A008DF8186001208DF869
S11353601B000020DFF8E052089009900FF2291783
S1135370DFF8D882C5F868900797CDF8288001AB8C
S113538002AA06A94846FFF7BDFD0298807885F871
S1135390600000241BE00298205C0019C4B202984B
S11353A020184178052912D180788DF80C0000204E
S11353B004909DF80C00000609D505F1D000059075
S11353C003A94846FFF720FF2867012101779DF8CC
S11353D004008442DFDB0A208DF819008DF8186080
S11353E00020ADF81A00089009900797CDF828809E
S11353F001AB02AA06A94846FFF784FD0027DFF89F
S113540054620FE005F1F000059003A94846FFF748
S1135410FBFE014601200090402305F1900248461E
S1135420FFF7A7F89DF8040087421BDA0298385C5E
S1135430C7190298FFB2381841780529F2D180784B
S11354408DF80C0004969DF80C000006DAD505F1E1
S1135450E000059003A94846FFF7D6FE68670121DE
S11354600177DFE70BB0BDE8F083DFF8E411C8672C
S11354707047DFF8DC11C1F880007047DFF8D01105
S1135480C1F884007047DFF8C811C1F8880070477C
S1135490DFF8BC118867704730B50D4681B0697874
S11354A0202904D033D322291ED005D32FE00FF2B4
S11354B0DD01FFF7FEFC2AE0DFF894412068000ECE
S11354C0E07208222068000CA07204F10801206830
S11354D0000A6072206820722079207360796073FA
S11354E0A079A073A06E17E0DFF86441D4F88010AF
S11354F0080005D068880006400E00F001008847C7
S1135500E16F080003D0A87800F001008847DFF8B5
S11355104001806E0022002101B0BDE83040FFF759
S113552080BC10B584B00088DFF82441A4F86C0076
S1135530A1218DF80410002220218DF8051001A965
S11355404A800872000A94F860208DF808208DF8CB
S11355500D0000228DF8092002228DF80A20002275
S11355608DF80B20002000900A23216FA06E01AA61
S1135570FFF752F80028F5D104B010BDDFF8D010C1
S1135580B1F86C10018070470000000010B5086984
S1135590DFF8BC400168082204F11000FDF732F87E
S11355A00020C4F88C00D4F88C00E17C00EB01608E
S11355B0C4F88C00D4F88C00A17C00EB0140C4F842
S11355C08C00D4F88C00617C00EB0120C4F88C00C2
S11355D0D4F88C00217C0818C4F88C00D4F88C0012
S11355E02060207D2071607D6071A07DA071A16F1D
S11355F0080003D02046BDE81040084710BD70B530
S1135600DFF84C6082B0044696F85C000D46B8B1F1
S1135610B06EFFF717FD03280FD196F8590000F07C
S1135620FD0086F85900012000902B46716FB06E82
S11356302246FEF7F1FF0028F5D1002002B070BD2C
S1135640012002B070BD0000981200201D5200001D
S1135650981200204152000062F30F2262F31F42AD
S113566000B500BF130096469446103928BFA0E841
S11356700C50FAD85FEA417C28BF0CC048BF40F800
S1135680042BC90728BF20F8022B48BF00F8012BC0
S113569000BD00000022FFF7E3BF000062F30F2209
S11356A062F31F42401810F0030308D0C91A1FD335
S11356B0DB0748BF00F8012D28BF20F8022D130096
S11356C030B414461546103928BF20E93C00FAD8F6
S11356D0490728BF20E90C0048BF40F8042D890081
S11356E028BF20F8022D48BF00F8012D30BC7047B8
S11356F0C91818BF00F8012DCB0728BF00F8012DE9
S1135700704700001348017819BB134900220A703E
S11357100023124AC2F880350B710B7103230B72FC
S113572000230B733B230B74042381F824300123DF
S1135730C2F80030D2F80032002BFBD003230B70E8
S11357400121C2F8801500BF00BF00BF00BF00BF29
S113575001707047811800200060034080006C4293
S1135760816807E002681168536889185B18C36090
S113577008320260C2689142F4D04A1C8260087800
S113578070472DE9FF4D00F10801009100270268E0
S1135790520801EBC2010191B84600210291039124
S11357A00168490800EBC101406800F0010501F1FE
S11357B00804400804EBC00631E000A8FFF7D0FF5E
S11357C04FFA80FA0AE000980168081800990290DC
S11357D049680818039000980830009002980399CB
S11357E08842F0D0401C029010F801BD47450CD10E
S11357F0B44208BF00F01DF8276805B14F44606843
S113580000EB070808344745F2D007F801BBBAF1AA
S1135810000F0AD51AF1010AE8D14745CDD1B442A7
S1135820CBD1304604B0BDE8F08DBAF1010AD5D52C
S1135830F3E7012000F000B801491820ABBEFBE7F4
S11358402600020026482749C0F8F81B2649C0F85C
S1135850F81B002101702148017401758021017633
S11358600177832180F82010002180F828105C2122
S113587080F83010017841F0020101700179890744
S1135880FCD5002180F83410042180F83810092157
S113589080F83C10017841F0100101700179C906CB
S11358A0FCD5017841F0400101700178027902F0E1
S11358B0E00201F0E0018A42F7D140F2FF320B48E6
S11358C001688905890D914206D00949094A8A600F
S11358D000680880002088607047000000000140D4
S11358E00810014051E5CC1AAE1A33E5000100401E
S11358F004E0024054E5CC1A5370616E73696F6E14
S1135900000000005370616E73696F6E20434D5345
S113591049532D444150202B20434F4D20506F724A
S113592074000000312E39005370616E73696F6E1C
S113593020434D5349532D44415000005370616E30
S113594073696F6E205553422053657269616C20F0
S1135950506F7274000000000600FF0901A10119D4
S113596001293F150026FF00750895409100190193
S1135970293F8100C000000010B50749794418315F
S1135980064C7C44163404E00A68081D5118884704
S11359900146A142F8D110BD08000000300000000B
S11359A0DBCCFFFFDC040000A81300200000000093
S11359B0D3FDFFFF0200000002000000DC00000035
S11359C00001000000E0FF1FA83300000120C046D2
S11359D0002801D0FFF7D0FF0020C046C046FCF7E6
S11359E07BFE00F000F800F001B8000007463846DE
S11359F0FFF722FFFBE7000001488047014800470A
S1135A0045580000095A0000C046C046C046C0467A
S1135A10FFF7DCFFFFF7FEBFFFF7FEBFFFF7FEBF98
S1135A20FFF7FEBFFFF7FEBFFFF7FEBFFFF7FEBFA6
S1135A30FFF7FEBFFFF7FEBFFFF7FEBFFFF7FEBF96
S1135A40FFF7FEBFFFF7FEBFFFF7FEBFFFF7FEBF86
S1135A50FFF7FEBFFFF7FEBFFFF7FEBFFFF7FEBF76
S1135A60FFF7FEBFFFF7FEBFFFF7FEBFFFF7FEBF66
S1135A70FFF7FEBFFFF7FEBFFFF7FEBFFFF7FEBF56
S1135A80FFF7FEBFFFF7FEBFFFF7FEBFFFF7FEBF46
S1135A90FFF7FEBFFFF7FEBFFC000001810081009D
S1135AA081008100810081008100810081008100EA
S1135AB081008100810081008100810081008100DA
S1135AC081008100810081008100810081008100CA
S1135AD081008100810081008100810081008100BA
S1135AE081008100810081008100810081008100AA
S1135AF0810081008100810081008100810081009A
S1135B008100810081008100810081008100810089
S1135B108100810081008100810081008100810079
S1135B208100810081008100810081008100810069
S1135B308100810081008100810081008100810059
S1135B408100810081008100810081008100810049
S1135B508100810081008100EB000064FD0000648D
S1135B60FD000150C3FD00000181008100E300023B
S1135B7021044081008100D500022104408100817C
S1135B80008100F900018025FC00000881008200EA
S10B5B900001F9000065FD00AD
S9035A0999
